:020000040800F2
:100000002814002069060008F1220008550600089F
:1000100055060008550600085506000800000000B7
:100020000000000000000000000000001D070008A4
:100030005506000800000000C9060008FD10000871
:100040003D0800083D0800083D0800083D0800087C
:100050003D0800083D0800083D0800083D0800086C
:100060003D0800083D0800083D0800083D0800085C
:100070003D0800083D0800083D0800083D0800084C
:100080003D0800083D0800083D0800083D0800083C
:100090003D0800083D0800083D0800083D0800082C
:1000A0003D0800083D0800083D0800083D0800081C
:1000B0003D0800083D0800083D0800083D0800080C
:1000C0003D0800083D0800083D0800083D080008FC
:1000D0003D0800083D0800083D0800083D080008EC
:0C00E0003D0800083D0800083D0800082D
:1000EC00014B1B68184700BF00000020014B186033
:1000FC00704700BF0000002030B585B004460D46A7
:10010C0010220021684602F0F2FD02238DF8023025
:10011C00044B2A4621466846019301F005FE05B0C2
:10012C0030BD00BFED00000880B505460E461746F1
:10013C00984601F099FB034602F044FE0446DFF8B2
:10014C001890424649F8003039463046A84754F8D2
:10015C00090000F09DFA00BF08000000074B0020CA
:10016C005A6822F001025A605A6822F002025A6060
:10017C005A6822F004025A60704700BF002004E065
:10018C00044A136843F010031360034B034A1A60CC
:10019C00704700BF002002402C00002000127A00A3
:1001AC0008B50348034A0021121A02F093F808BD5F
:1001BC007800002028030020074808B5074A0849A2
:1001CC00121A02F089F8BDE808400648064A0749A9
:1001DC00121A02F081B800BF000000207800002045
:1001EC00BC3700080000002000000020BC370008CD
:1001FC0038B505460C4699B1D1E901230F48096879
:10020C0002F05AF8D4E90423E1680D4802F054F8DE
:10021C00E1690C4802F050F8A1690B4802F04CF867
:10022C00012D05D1EFF305810848103902F044F88F
:10023C0021462846BDE8384001F072B8BE320008AD
:10024C00EE3200081E3300082E3300085D33000820
:10025C0030BFFFF7FDBF00BF2DE9F04105460B4E47
:10026C00DFF82C80324606EB0807CC1B20460949E8
:10027C0002F02FFDA01942460021083C02F037FD88
:10028C006C6607F10800BDE8F08100BF00000000BB
:10029C000400000030310008054B5A699B689A42F3
:1002AC001FBF044A536843F080535360704700BF2C
:1002BC00F802002000ED00E010B51D4C1D4801F0C7
:1002CC00FBFFA36A990130D51B4801F0F5FF1E20F6
:1002DC00A36ADA0103D5194801F0EEFF1F20144C74
:1002EC00A36A1B0303D5164801F0E6FF2120A36A7D
:1002FC00590303D5134801F0DFFF22200C4CA36AED
:10030C009A0303D5104801F0D7FF2320A36ADB031F
:10031C0003D50E4801F0D0FF2420054A936A6FEAFA
:10032C0003436FEA1343936210BD1D20D0E700BF57
:10033C0000ED00E0713300088A3300089E3300089A
:10034C00B9330008D8330008FE330008193400080C
:10035C0070B5204C064620480D4601F0ADFFA36A4F
:10036C00D90435D51D4801F0A7FF1720A36A1A053B
:10037C0003D51B4801F0A0FF1820164CA36A9B055F
:10038C000FD5184801F098FFA16BA36A180407D584
:10039C00154801F091FF1EB1A36A23F40043A36238
:1003AC0019200C4CA36A5A0503D5104801F084FFA0
:1003BC001A20A36ADB0503D50D4801F07DFF1B2035
:1003CC00044A936A43F47F43936200232B7070BDFD
:1003DC001620CBE700ED00E0453400085C34000843
:1003EC006E340008823400089C340008B2340008D3
:1003FC00CE34000870B51F4C06461F480D4601F060
:10040C005BFFA36AD90632D51C4801F055FF1120B9
:10041C00A36A1A0703D51A4801F04EFF1220154C97
:10042C00A36A9B070FD5174801F046FF616BA36ABF
:10043C00180607D5144801F03FFF1EB1A36A23F03C
:10044C008003A36213200B4CA36ADA0703D50F4871
:10045C0001F032FF1420A36A064ADB0658BFA36AD8
:10046C00936A43F0FF03936200232B7070BD10203E
:10047C00CEE700BF00ED00E0E7340008FE340008D2
:10048C006E340008323500084B3500086235000820
:10049C002DE9F0415B4B04465F6800258AB0C7F339
:1004AC00080685F31188BFF36F8F02F07F43B3F119
:1004BC007F4F06D102F00C03082B13D1524801F0E8
:1004CC00FBFE00252C464FF00008F31E8DF807802C
:1004DC00092B00F28580DFE803F00A797D758383B0
:1004EC008383838110074CBF0C460125EBE74748FB
:1004FC00444E01F0E1FE8DF80780F36A9A0704D5AB
:10050C00434801F0D9FE00232FE0F36A002B01DAF7
:10051C004048F6E7F36A5B00F5D53F4801F0CCFEA6
:10052C007369A26943F480737361BFF34F8FBFF398
:10053C006F8F736932F8022C23F480737361BFF3ED
:10054C004F8FBFF36F8F4DF602739A4208D0B36A88
:10055C00DBB24BB301200DF10701FFF74BFF33E08A
:10056C0021682E4801F0A8FE23689DF80720C2B927
:10057C0002AE04F12007324620686168083403C2D9
:10058C00BC421646F7D1099AB5B3C2F3080121B99A
:10059C006FEA52226FEA42220992184602A9FFF72B
:1005AC0027FE0AB0BDE8F081B36A13F47F4F05D083
:1005BC0001200DF10701FFF7CBFE05E0B36AB3F59F
:1005CC00803FA0D3FFF778FE0346CEE700200DF165
:1005DC000701C2E700200DF10701ECE7104890E796
:1005EC00104B17F4F87F1049104818BF1946A6F1A4
:1005FC00100201F061FE86E722F4FF7222F0010284
:10060C00CAE700BF00ED00E0B0350008DC3500089B
:10061C00F435000816360008253600084536000863
:10062C0062360008973500088235000887360008C6
:10063C00044B5A6942F010025A615A6922F00802BE
:10064C005A61704700ED00E0EFF30880EFF3098189
:10065C0001B57246FFF71CFF01BD00BF0A4880F3CD
:10066C000888102080F3118808484FF40061401866
:10067C0080F30988EFF314800221084380F3148877
:10068C00BFF36F8F01F039FE2814002028030020DF
:10069C00084B9B6883420BD1EFF3058343B1064BA8
:1006AC005A6842F080525A605A6A22F400425A62E6
:1006BC0001F0E0B8F802002000ED00E011498A6872
:1006CC004FF030001044EFF3098C80E8F01F10203D
:1006DC0080F31288BFF36F8F0B4F4FF000664A699F
:1006EC008A603E60506E094C2060906E00239366C9
:1006FC0080F3118802F1300090E8F01F8CF3098828
:10070C0070470000F802002004ED00E0F801002022
:10071C001EF0040F0CBFEFF30880EFF30980816922
:10072C0011F8021C0229FFD001B5724601F0D6FD6A
:10073C0001BD00BF40B2002807DB01234109034A79
:10074C0000F01F00834042F82130704700E100E0C8
:10075C0040B2002801F10101ACBF00F16040064B32
:10076C004FEA0111C9B2ABBF00F5614000F00F00B8
:10077C0080F800131954704714ED00E0054B064A3D
:10078C0023F0404323F07F039360BFF34F8FBFF3FD
:10079C006F8F70470000000800ED00E042F8203C2D
:1007AC00009B0B4942F81C3C019B21F0010142F8D3
:1007BC00183C029B42F8081C42F8143C4FF0807322
:1007CC0042F8043C0023203A02658366704700BF60
:1007DC003501000800B50B4B15469860426E0A4B6C
:1007EC000E461A602C4686F309880020034B984766
:1007FC002046002100220023014C2047232300081F
:10080C0035010008F8020020F80100201022014BED
:10081C001A61704700ED00E0002310210348C21854
:10082C0001332B2B82F80013F9D1704700E100E063
:10083C0008B5EFF30583064A103B02EBC30152F8EF
:10084C00330049688847BDE80840FFF725BD00BF65
:10085C00742F000808B5024B1B689847002008BD90
:10086C00FC010020034B044A1860937843F0020308
:10087C0093707047FC0100200400002008B5064965
:10088C00064821F00701C1F1005202F5A04201F027
:10089C00D4FC002008BD00BF2F1C0020000200204B
:1008AC001F2809D8012303FA00F0044B5B69984315
:1008BC000CBF01200020704700207047000401404D
:1008CC00012300F01F021F2803FA02F39DBF034A05
:1008DC00002053616FF01500704700BF0004014009
:1008EC00044B184400230133994200F8012BFADC25
:1008FC00704700BF3C0000202DE9F0410546002662
:10090C004FF001080E4F6B78F4B2A34201D8BDE84A
:10091C00F0812B781C442046FFF7C2FF68B12046BB
:10092C00FFF7CEFF57F834303BB107EBC40204F0AD
:10093C001F04516808FA04F098470136E3E700BF3A
:10094C000C020020034660B1B0FA80F2C2F11F0223
:10095C00D2B205498856054A11680B431360FFF75C
:10096C00E9BEFF22F5E700BF3C0000200004014077
:10097C00024A136823EA0003136070470004014025
:10098C00032921D8DFE801F0020C10190F4B9A68EB
:10099C0022EA00029A60DA6822EA0002DA60704702
:1009AC000A4B9A680243F5E7084BDA680243DA60AF
:1009BC009A6822EA00029A607047044B9A680243D4
:1009CC009A60DA681043D860704700BF0004014099
:1009DC0030B5B0B1B0FA80F3C3F11F03DBB20B48F2
:1009EC0050F833408C4204D100EBC3056D6895423E
:1009FC0005D044B940F8331000EBC300426000202E
:100A0C0030BDFF23EBE76FF00F00F9E70C0200207D
:100A1C0060B1B0FA80F3C3F11F03DBB20021044ACA
:100A2C0042F8331002EBC30251607047FF23F5E725
:100A3C000C0200200F2300F00302043292009340BA
:100A4C0043EA9000C3B2064A023352F82320030C47
:100A5C0093FAA3F3B3FA83F302EA1040D840704739
:100A6C000000014038B51E4B0D4618680B88144623
:100A7C00C3F30B03013B1B2B2BD8DFE803F0102136
:100A8C000E211F2A1910102A2A2A2A2A2A2A2A2A2F
:100A9C002A102A2A2A102A2A2A1749F640402060AE
:100AAC002B68B3F5805F0DD2002038BD4008F6E707
:100ABC0001F045FD80B101F042FDF0E70948EEE799
:100ACC000020ECE7C3F313330133B0FBF3F02060E9
:100ADC00EAE76FF08500E8E76FF00400E5E700BF98
:100AEC002C00002000127A00F8B53B4F01F029FDD4
:100AFC00384601F023FD00F0C7FB384C384A6368D8
:100B0C001578C3F30313D35C47FA05F520FA03F603
:100B1C00AE4202D2284600F0DDFB236843F480236A
:100B2C002360236843F48033236023689A03FCD545
:100B3C00636A43F001036362636A9B07FCD56368D5
:100B4C0003F00C03082B15D12368980706D42368EF
:100B5C0043F00103236023689907FCD5636823F0F5
:100B6C0003036360636813F00C0FFBD1636823F01D
:100B7C00F0036360236823F08073236023689A0179
:100B8C00FCD400F031F8236843F0807323602368B1
:100B9C009B01FCD5636823F0F0036360636823F06A
:100BAC00030343F002036360636803F00C03082B38
:100BBC00FAD1AE4202D3284600F08CFB094B002040
:100BCC001F60636823F4E06343F4806363606368CD
:100BDC0023F460536360F8BD00A24A040010024085
:100BEC004B3700082C000020054A536823F47C1373
:100BFC0043F4E8135360536823F480035360704745
:100C0C000010024008B5074801F0B4FF38B106489F
:100C1C00FFF728FE0448FFF769FA002008BD6FF0C3
:100C2C001200FBE73C2F0008390C00080A2838B5E5
:100C3C000446074D04D1AB680D2128465B689847E4
:100C4C00AB6803485B68E1B29847204638BD00BFEB
:100C5C003C2F00082DE9F843D0F804801746D0F853
:100C6C001090D8F808000D461E4601F0B8FBB7F5F9
:100C7C00001F044616D12846D8F80840FFF7DAFEC4
:100C8C0084420CD1294601F0AAFB0446FFF770FE02
:100C9C002046FFF7BDFE00212046FFF771FE002025
:100CAC00BDE8F883B7F5800F20D0B6F1806F19D06E
:100CBC00B6F1C06F18D0B6F1007F1AD102264A46A1
:100CCC0020460F49FFF784FEB0B92846D8F8081023
:100CDC0001F08AFB20463146FFF752FE2046FFF713
:100CEC0031FEDCE70126EAE70326E8E76FF0850032
:100CFC00D6E76FF01500D3E76FF00F00D0E700BF19
:100D0C006726000838B50369044658600A4D284622
:100D1C0001F030FF60B1AB6861681B680C3123B126
:100D2C002846984700EAE07038BD6FF05700F9E7A5
:100D3C006FF01200F8E700BF5C2E000800222DE9CE
:100D4C00F347134604468A4211D22BB954F8323079
:100D5C00C3F389230132F6E754F83200C0F389203B
:100D6C000028F7D098425ED101329142F4D8E3B119
:100D7C002E4A13F0010F906940F0010090619269C6
:100D8C004FEA132002F001020192019AC3F34402CC
:100D9C0000FA02F0264A09BF5368D369034343F0B3
:100DAC00E06316BF03435360D361224F04EBC106CB
:100DBC00A64201D1002011E0D4E9002512F003096C
:100DCC000FD145F04105C2F3870AC2F3831257F8DD
:100DDC002280B8F1000F15D16FF0120002B0BDE8FF
:100DEC00F087B9F1020FEED0B9F1010F07D115F46C
:100DFC00C07F0CBF45F0020545F00405E3E745F064
:100E0C000105E0E7404601F0B5FE0028E4D04B4672
:100E1C002A4640460AF00F0101F003FD002804F1B8
:100E2C000804C5DADAE76FF01500D7E700100240C6
:100E3C000000014094310008F8B50C460369416884
:100E4C001D682379012B35D09A1E56425641B602A5
:100E5C006279022A96BF384F4FF4005C37F812C003
:100E6C00A279042A29D0003B18BF01231B03E27985
:100E7C00012A0A680CBF4FF440770027A542D168BD
:100E8C001ED121F4B05131430B43D360136923F4C9
:100E9C00405343EA0C03136143681A68536923F403
:100EAC0040733B4353612968406801F052FD00EAEE
:100EBC00E070F8BD4FF4C066CAE74FF48053D6E734
:100ECC0001F4C0618E421FBFD16821F4C06131436F
:100EDC00D160426811680A6902F4405294451FBF00
:100EEC000A6922F4405242EA0C020A614268116813
:100EFC00CA6802F4805293421FBFCA6822F480521F
:100F0C001343CB6043681A68536903F440739F42E0
:100F1C001FBF536923F440733B43536121682B6813
:100F2C00994206D0406801F014FD0028C1DB23680B
:100F3C002B600020BDE700BFB8320008F8B50C46A6
:100F4C004368A6791D6803691F680B794979012BE1
:100F5C0035D102294AD9042E45D04FF4C0624FF442
:100F6C0080534FF0030C8C453DD1002B77D0002AD9
:100F7C0014BF03220422B24235D1E37963B1012BB1
:100F8C0031D1394B9D4207D0A3F574439D4203D018
:100F9C0003F580639D4226D1EB68214623F4005370
:100FAC00EB60FFF749FF00281DDBEB6843F40053AF
:100FBC00EB6094E8030087E80300002015E0022BA7
:100FCC0006D102291FD9042E0DD04FF48062C6E73A
:100FDC0002290A461FD9042E02D123B90022BEE7EA
:100FEC0013BB0329C7D06FF08500F8BD1F4A042E30
:100FFC0032F811C0F7D04FF4C062033B012BF2D989
:10100C004FF4805319E0194A042E32F811C0EAD07B
:10101C004FF48062F1E7154A042E32F811C009D161
:10102C00002BE0D11A46EBE7033B012BDBD9D5E7CC
:10103C000022E2E7002BFBD11A46BCF5805F08D0FA
:10104C00BCF5405F08D0BCF1000F8AD14FF0010C09
:10105C0089E74FF0000C86E74FF0020C83E7002A7B
:10106C0014BF0222032286E700380140B832000880
:10107C004FF0E02310B50F499C691A6908689B6909
:10108C000D4902F4803234B993B903464AB90A685F
:10109C001044C01A10BD002B08BF03460AB9A34266
:1010AC00F5D90A6802440A604FF0E0221269EEE7B3
:1010BC000446F3E7F4020020F00200201022094B52
:1010CC00002083F823204FF4E152074B1A60074BA2
:1010DC0041F61F4218604FF0E0235A6107229861D5
:1010EC001A61704700ED00E0F4020020F0020020CD
:1010FC00684620F007018D4619B5FFF7B9FF114975
:10110C00114B0868D3E90042001942F10002C3E90F
:10111C00000200230B604FF4E1530C4AD2E900416A
:10112C00001BB0FBF3F043431B1941F10001C2E972
:10113C00003100F07DFDFFF7AFF8BDE819408546A2
:10114C00704700BFF00200208000002078000020D3
:10115C002DE9F041DFF8E08099B1421C0BD14FF042
:10116C00E022136923F0010313614FF07F43C8F8A9
:10117C000030BDE8F081D8F80060012807DC0027BA
:10118C000BE0431CD8F80060F7D140F6191040F67C
:10119C001A139842A8BF1846471EEFF31185102367
:1011AC0083F31288BFF36F8FFFF762FF4FF0E023DA
:1011BC00224C9969D4E9002380184FF0000243F1C6
:1011CC000003C4E900031E4B1A601E4B1A68831AF5
:1011DC002ED44FF4E15C0CFB073303F5E0531F33C3
:1011EC00B3FBFCF7131A0CFB0733B3F5806F38BF56
:1011FC004FF48063144A934228BF13464FF0E02209
:10120C00C8F80030013B906953610023814293611F
:10121C00A1EB000338BF9B19D4E900125B1842F113
:10122C000002C4E9003285F31188BFF36F8FA0E789
:10123C004FF48063E2E700BFF4020020800000203E
:10124C00F00200207800002020DFFF0038B5EFF31B
:10125C001185102383F31288BFF36F8F084B1C6822
:10126C00084B1B68E41AFFF703FF85F31188BFF3E3
:10127C006F8F4FF4E1532044B0FBF3F038BD00BF47
:10128C0080000020780000200D4A536803F00C0108
:10129C00082912D10B48C3F38341DB03405C09D509
:1012AC005368094AC3F340435043084AD35CB0FB2C
:1012BC00F3F07047064B584370470348704700BF24
:1012CC00001002405D37000800127A005B370008FE
:1012DC0000093D00D8B10F4B984216D80E4B9842DE
:1012EC0094BF002001200D4A136823F00703034329
:1012FC001360136803F0070398421CBF136803F0D4
:10130C000703C01A18BF012070470220EBE7012029
:10131C00704700BF006CDC0200366E0100200240FA
:10132C0038B5EFF31185102383F31288BFF36F8F59
:10133C00064B9C6801F031FC85F31188BFF36F8F6D
:10134C002046BDE83840FFF7A3B900BFF8020020E3
:10135C0038B50A4B53F82040013053F82050A542C1
:10136C0000D838BD606830B1037EDB0701D401F0D2
:10137C00E9FB0834F3E723689847FAE7A032000842
:10138C00012270B52E4B032086B01A70FFF7E0FFD8
:10139C0000F0B2FC2B4C2C4DAC421AD10420FFF7C0
:1013AC00D7FF2A4C2A4D2646AE4204F1300416D300
:1013BC0000F0E6F9254C274EAC422CD300F0F4F9A2
:1013CC0001F07AFC244A938923F00103938106B03F
:1013DC0070BD54F8043B002BE0D09847DCE754F880
:1013EC000C3C059354F8103C049354F8143C0393B0
:1013FC0054F8183C029354F81C3C019354F8203CCC
:10140C00009354E90A2354E90C0100F0BDF854F898
:10141C00303C5E65C7E7D4E90A23B3F1FF3F08BF50
:10142C00B2F1FF3F05D052EA0301206803D100F06E
:10143C00F7F93034C0E73146183000F069FBF8E7B3
:10144C00240300203031000830310008CC30000873
:10145C00CC3000083F2C0008F8000020702370B539
:10146C00134E012203FB0066002386B0CDE9042352
:10147C000F220193CDE9023214230E4D0E4903FBCA
:10148C000055044601EB00214FF4807230460B4BA3
:10149C00009500F079F8337C2C7423F0040333743A
:1014AC00074B013403EBC423EE606B6006B070BDD8
:1014BC0088000020F8020020280B0020AD2B00082B
:1014CC0028030020BFB50020FFF742FF264B83F313
:1014DC000888264C00256369254F43F4007363612B
:1014EC00F02384F82230E57725766576A57684F8A6
:1014FC002050636A43F4E0236362FFF799F8FFF727
:10150C0085F94FF0FF331B48A362E36200F074F8D7
:10151C00FEF736FE0120FFF71BFF0220164CFFF7EB
:10152C0017FF00F075F9154B15495C61154B4FF41D
:10153C000062059301232046CDE90353CDE9015503
:10154C003B46009500F020F80646227C204622F00F
:10155C000402227401F041FB2846FFF77FFF3A4654
:10156C0031462046FFF736F9280B002000ED00E04D
:10157C008D13000868010020F8000020F8020020FC
:10158C00280C00206D3700082DE9FF41984600F12A
:10159C005803C0E916330E9B002683810423D51D06
:1015AC00037425F007050D9B0D440F4683732946E4
:1015BC00C0E906668660C6730446FEF74DFE0C9BBA
:1015CC00073002930B9B20F0070001930A9B2D1A06
:1015DC0000932A46434639462046FFF7DFF8054B71
:1015EC0066659B6803B11B6E2846236604B0BDE894
:1015FC00F08100BFF8020020012310B504460374EB
:10160C00838100F073FB014B9C6010BDF80200203D
:10161C006FF00A01084A9368D966084998664B68C6
:10162C0043F080534B60002383F31188BFF36F8F1B
:10163C009368D86E704700BFF802002000ED00E000
:10164C0070B590F91020037C002A36DBD90634D112
:10165C001B4C63F07F032246037452F8183FE16978
:10166C00934207D1C0E900210860E06111E0994282
:10167C00F8D01B68002BF5D090F90E5093F90E6042
:10168C00B542F4D0AE42F2DD5968C0E900310860D1
:10169C005860A569954200D005B9E568A3681A7C25
:1016AC00D20604D1DA897F2A01D9AA6932B1AB42B8
:1016BC0002D0284600F0AEF9656170BD6361FCE7AD
:1016CC00F802002038B5194CA168E0690B6881421A
:1016DC0014BF1A46002249680B605960A368E1697F
:1016EC002AB9134AC3E900210B60E3610CE093F9BA
:1016FC000E0092F90E50A84214D0854212DD5168AA
:10170C00C3E900210B605360A569094B9D4200D0D1
:10171C0005B9E568A3689D4202D0284600F07AF925
:10172C00656138BD9142DCD01268D9E7F80200201F
:10173C001003002049B9EFF3058030B9054B5A6905
:10174C009B689A4201D0FFF763BF81F31188BFF306
:10175C006F8F7047F8020020034648B9EFF30582FB
:10176C0032B9064A51699268914201D0FFF750BFD5
:10177C0083F31188BFF36F8F704700BFF80200200E
:10178C00EFF31181102383F31288BFF36F8F054B96
:10179C009A68D37B013BD37381F31188BFF36F8FAE
:1017AC00704700BFF802002070B5EFF311861023CC
:1017BC0083F31288BFF36F8F144DAB68DA7B013261
:1017CC00DA732A4652F8184F944200D004B9EC68E8
:1017DC001A7CD20604D1DA897F2A01D9A2692AB1EE
:1017EC00A34202D0204600F015F923466B6186F324
:1017FC001188BFF36F8FEFF31180102383F31288DE
:10180C00BFF36F8FBDE87040FFF7A6BFF802002052
:10181C00024B03F11802C3E906227047F8020020BC
:10182C0038B50446EFF31185102383F31288BFF308
:10183C006F8F037C5B070FD5183001F015FA237CF2
:10184C00204623F004032374FFF7FAFE2946BDE873
:10185C0038400448FFF76EBF85F31188BFF36F8FD4
:10186C0038BD00BF25030020014B9868704700BFAE
:10187C00F80200202DE9F84304468789EFF311851F
:10188C00102383F31288BFF36F8F037C190705D5E0
:10189C0085F31188BFF36F8FBDE8F883D90943F046
:1018AC0008025DD10274A36813B1204601F08BF9D4
:1018BC0004F1180001F0D8F9A66D04F15808B045F0
:1018CC0011D04FF0000976B1304601F07CF906F1E9
:1018DC00180001F0C9F93046C6F86C90FFF7B0FE5D
:1018EC00A66DB045EFD1DFF8C080D8F808309C4227
:1018FC003ED1EFF30589B9F1000918BF4FF001098A
:10190C00D8F81860294A964200D00EB9D8F80C6065
:10191C00B34202D0304600F07DF82046C8F814607F
:10192C0000F0F6FCB9F1000F02D02148FFF764FE7D
:10193C00D8F808309C4231D1EFF3058373BBA289F0
:10194C00D20718D42846FFF763FEFB07A4D5002363
:10195C0083F31188BFF36F8F0423184602DF9BE7D4
:10196C0003F07F0343F00803037401F024F99AE7B2
:10197C004FF00009C4E785F31188BFF36F8F83F331
:10198C001188BFF36F8F0423184602DFEFF3118029
:10199C00102383F31288BFF36F8FD4E785F311887C
:1019AC00BFF36F8FD1E700BFF802002010030020B7
:1019BC0068010020027C034612F01F0210D10A4974
:1019CC0088420DD00949086868B1D9897F2909D89E
:1019DC0093F90E20064B1B689A42B8BF0020704743
:1019EC00002070471046704788000020300000200F
:1019FC001C0300200122044BC01A044BC010584396
:101A0C00034B1A54704700BFD8010020ABAAAAAAF6
:101A1C002603002070B50C4B0C4D1E7CFFF7CAFF43
:101A2C00182303FB06550446284601F01DF9002235
:101A3C00074B9A553CB1621E2846BDE870400549DB
:101A4C00D31700F065B870BDF8020020D801002053
:101A5C0026030020011A000838B5EFF31185102376
:101A6C0083F31288BFF36F8F0F4B104A9C6810687A
:101A7C00A04206D1FFF7CEFF85F31188BFF36F8F1D
:101A8C0038BD00211B7C1160094AD35C002BF3D0BC
:101A9C002046FFF78FFF0028EED0237CDB0601D118
:101AAC00FFF710FE2046E5E7F8020020180300209F
:101ABC0026030020024B1868984208BF002070478C
:101ACC0034000020034B1B680BB9FFF7BFBB002091
:101ADC00704700BF2003002030B570B10B4B5B6822
:101AEC0098420AD0036843B1D3E90421D0E90445F4
:101AFC00121941EB0501C3E90421D0E9003213604E
:101B0C005A600023C0E9003330BD00BF3400002010
:101B1C00B3F1FF3F08BFB2F1FF3F2DE9F84F044688
:101B2C00994615461F467AD08160EFF31188102331
:101B3C0083F31288BFF36F8FB9F1000FDFF8E4A0C5
:101B4C0020DBFFF7BFFFDAE90027013549F1000977
:101B5C002D1849EBE07306464FF00109C4E9045314
:101B6C00AD1843EB0707FFF7A5FF0346DFF8B8E016
:101B7C00DEF804A0EBB9C4E900EACAF80040CEF8DC
:101B8C00044028E06FF00103DAE900125B1A4FF011
:101B9C00FF3161EB02025B1B62EB0902012B72F15C
:101BAC000001BCBF012300224FF00009C0E9043240
:101BBC00D9E7D3E9041CD4E904208A4270EB0C0B5E
:101BCC0024DA891A5A686CEB0000C3E90410C4E9E2
:101BDC00003214605C60FFF76DFF84420ED1134B32
:101BEC001B685BB9B9F1000F02D1FFF76BFF06461A
:101BFC00304601F022F80021FFF7AAFA88F3118889
:101C0C00BFF36F8F28463946BDE8F88F521A60EB48
:101C1C000C009A45C4E90420ADD01B68AAE7002546
:101C2C002F46EFE7F00100203400002020030020B5
:101C3C002DE9F047EFF31185102383F31288BFF3DE
:101C4C006F8FDFF8A0900026C9F800000027FFF77F
:101C5C0031FFDFF89480D9F80030D8E900ECD917BF
:101C6C0050B1D0E90442A34271EB020A1BDAE41A28
:101C7C0062EB0102C0E90442002413EB0E034CEBAF
:101C8C0001012046C8E90031C9F8004000F0D5FF39
:101C9C002146FFF75DFA85F31188BFF36F8FBDE81E
:101CAC00F047FFF7D9BE14EB0E024CEBE473C0E91E
:101CBC000467C8E90023FFF70FFF85F31188BFF312
:101CCC006F8F83689847EFF31185102383F3128885
:101CDC00BFF36F8FD9F800301B1BC9F80030FFF72A
:101CEC00E9FEB8E720030020F0010020014B036659
:101CFC00704700BF60000020014800F0DDBA00BF53
:101D0C007237000838B5064C064DAC4201D30020A2
:101D1C0038BD2046D4E9011200F0D1FF1834F4E7A5
:101D2C0060000020780000202DE9F04F43688DB052
:101D3C000293837815469A07804640F10D81002462
:101D4C000E78002E00F00A81252E0BD04B1C03932D
:101D5C00013441463046029B98470028C0F2F68079
:101D6C000399EDE74E788B1C252E0393F0D00027BA
:101D7C00B946BB46BBF11F0F38D8A6F12003102B78
:101D8C000AD8DFE803F02A090930090909210909F1
:101D9C000928092D09091F00A6F13003092B33D995
:101DAC002A2E37D11BF0400F55F8043B40F08280AF
:101DBC00002BA7BF99464BF0200BC3F100094BF049
:101DCC00280B01E04BF0010B039B13F8016B039301
:101DDC00002ECFD130E04BF0020B4BF0040BF3E7AD
:101DEC004BF0080BF0E74BF0100BEDE7BBF17F0F5E
:101DFC0019D8A6F13003092BD2D81BF0400F03D011
:101E0C000A2101FB0737DFE70A214BF0200B01FB0E
:101E1C000939D9E72E2E06D11BF0400F40F09E80D9
:101E2C004BF0400BD0E76C2E31D02BD8682E36D02F
:101E3C006A2E3CD04C2E3AD0002F46F02003B8BF6F
:101E4C002BF04002A3F16501BCBF00271FFA82FBF7
:101E5C00022901D9612B2FD10727073525F007055A
:101E6C00DFF8A8A208351BF0080F66D056460AEB1F
:101E7C00070B5E4563D1A4EB0A0A06EB0A02A9EB39
:101E8C0007096FE1742E9FD07A2E9DD0D4E71BF0FA
:101E9C00800F18BF4BF4007B4BF0800B94E71BF4C6
:101EAC00807F18BF4BF4007B4BF4807B8CE74BF4AA
:101EBC00207B89E71F4687E7A6F16301122900F210
:101ECC00F080DFE811F013004F00EE00EE00EE00A2
:101EDC00EE004F00EE00EE00EE00EE00EE00FE0015
:101EEC00E900EE00EE001B00EE00AF0055F8043BDD
:101EFC0001278DF818300DF1180AB4E755F804AB2A
:101F0C00834BBAF1000F08BF9A461BF0400F14BF69
:101F1C0039464FF0FF31504600F0F1FE0746A2E77C
:101F2C0041462020029B984700280FDB013EB74218
:101F3C00F6D34C44A41BB14698E74E46F7E741460E
:101F4C0016F8010B029B9847002892DA98F8023099
:101F5C0043F0040388F802304FF0FF3420460DB0F4
:101F6C00BDE8F08F1BF0800F34D01BF4007F2CD019
:101F7C00073525F00705AA4669685AF8080B2BF0B7
:101F8C0010050029ADB237DA404261EB410145F44E
:101F9C0080650A230DF1180B5A4600F0BCFEA0EB2D
:101FAC000B0301936B0662D5019B25F001019F4247
:101FBC0089B240F3A180002E00F0998015F0100238
:101FCC0040F09C80BB460D4623E0AA465AF8040B11
:101FDC00C117D4E7AA461BF4807F5AF8041B01D121
:101FEC000846F5E71BF4007F15BF48B208B241F371
:101FFC00C01141F3C031C2E750EA0103C9D11BF053
:10200C00400FC6D0002FC4D12BF01102BB4695B2A5
:10201C00019740F2064115EA01021CBF00220BF1A8
:10202C00010B2CE00A232BF010021FFA82FB1BF091
:10203C00800C49D01BF400711DBF073525F0070536
:10204C00AA46AA461ABF5AF8080B69685AF8040B34
:10205C0050EA010545D12BF016051BF0400FADB22F
:10206C0042D0002F40D12BF0170295B2019715F0FA
:10207C00100248D0019B002E42D103F1010B29071D
:10208C005AD4EB0706D5D9456FDDA9EB0B03CB462C
:10209C0001995F185B4649E0102378264BF0100B32
:1020AC00C5E7782B04D1C6F1780343F01003BEE7E3
:1020BC0041462520029B98470028FFF647AF023483
:1020CC0047E608230026B2E7AA461BF480715AF8AB
:1020DC00040BBDD01BF400711ABF6146C0B280B2B4
:1020EC00B6E72BF0060295B20DF1180B54E725F06C
:1020FC001105BB46ADB28CE70D46B8E73B460D4625
:10210C0003F1020BBBE7DDF804B082E7B43700083B
:10211C00AD370008CDE9043241462020029B984798
:10212C000028FFF613AF049B059A01339945F1DCA7
:10213C00A4EB0B019B46CC180AB341463020029B02
:10214C0098470028FFF602AF8EB901342744019B53
:10215C00391B994223DC1D4655BB5546019AA9EB08
:10216C000B0922441446914434E0019F92E7414606
:10217C0030460234029B98470028E7DAE6E640F244
:10218C0006410D42E2D015F0020F14BF2B20202087
:10219C0015F4806F414618BF2D200134EAE7414603
:1021AC003020029B9847002804F10104CFDACDE6D9
:1021BC0006AB013D585D4146029B98470028CBDA9F
:1021CC00C4E641462020029B9847002804F10104F4
:1021DC00FFF6BCAEA9EB0403002BF2DCC0E500BF9C
:1021EC00704700EBC100408840087047F8B50346C3
:1021FC00FFF7F7FFB0FA80F0C0F11F0003EB800C83
:10220C00DCF81060CA00171D0C4606328DB256B9A8
:10221C00012101FA00F0D9680143D960CCF81040D3
:10222C00DD539D52F8BDF1000431585AD85303EBDD
:10223C00C0009E52C5805D52F4E7043A2DE9F0418E
:10224C00CC1D114424F0070421F007010E1BF708E4
:10225C00B7FA87F24FF00008C2F12405AD0007353C
:10226C00C2F12002ED0804604146A760C4F80C805E
:10227C00920004F1100000F03AFD6B0043F00103F2
:10228C0063807B1B04EBC5025900A4F800805180CD
:10229C00A21924F83550A2F80280A35304EBC7030B
:1022AC005A88294642F001025A802046BDE8F04186
:1022BC00FFF79CBF002070470FB407B504A951F875
:1022CC00040B0191FDF718FF03B05DF804EB04B0AB
:1022DC007047704700F00BBD00F0FBBC0146006876
:1022EC00FDF786BF08B5FDF7B3FFBDE80840FDF765
:1022FC00D3BF00210120FDF77BBF08B5FEF73EFAE6
:10230C00FDF74EFFFDF758FFFEF786FAFFF7DAF8F8
:10231C006FF08500704761B662B680F31188BFF329
:10232C006F8F704772B6002383F31188BFF36F8FE2
:10233C00BFF34F8F30BF62B6BFF36F8F704708B5D6
:10234C00FEF788FA002008BD0020704708B5062269
:10235C0001210020FEF7C4FA002206201146FEF7E8
:10236C00F7F9012107220846FEF7BAFA00220720E6
:10237C001146FEF7EDF9082201210220FEF7B0FA12
:10238C00002208201146FEF7E3F90922012103205F
:10239C00FEF7A6FA002209201146FEF7D9F90A2207
:1023AC0001210420FEF79CFA00220A201146FEF7B8
:1023BC00CFF9052117220846FEF792FA00221720C2
:1023CC001146FEF7C5F9282206210A20FEF788FAE5
:1023DC00002228201146FEF7BBF9002008BD012081
:1023EC0001F01F01884070470F2300F003020432F4
:1023FC009200934043EA9000020C92FAA2F2B2FAD5
:10240C0082F210B5C3B29B0003F1804303F5803315
:10241C009C68914024EA10400143996010BD0B88E0
:10242C0082B0C3F30B0303F6EC72C2F30B02082A5F
:10243C0014D803F1804303F504331A684868024347
:10244C0000201A600B88C3F30B0303F1804303F5E0
:10245C0004331B680193019B02B070476FF0850039
:10246C00FAE70B88C3F30B0303F6EC72C2F30B020F
:10247C00082A9FBF03F1804303F504331A684968A7
:10248C009BBF00208A436FF085001A6070470928B3
:10249C0009D840F2EA33C34013F0010F14BF0020F7
:1024AC006FF0850070476FF08500704738B508886D
:1024BC00C0F30B00FFF7EBFF002822DB4868FF2876
:1024CC001ED0012382B2C0F3415502F18042013586
:1024DC0002F50432AB401468C0F30440013B834066
:1024EC0024EA0303136049688BB203F1804303F5BC
:1024FC00043318680A0EC1F304418A4002431A607F
:10250C00002038BD088808B5C0F30B0000F6EC734A
:10251C00C3F30B03082B0AD800F1804000F50430FC
:10252C0002684B68934314BF0120022008BDFFF7DB
:10253C00AEFF002814BF01200220F7E770470020EF
:10254C0070477047436800205B689B680B6070475E
:10255C0043685B68D86842400A404240DA60002019
:10256C007047436800205B6819617047436800201E
:10257C005B6859617047436800205B68DA685140BA
:10258C00D960704710B503699868F8B1884219D1C1
:10259C00DC680868A142986000D1D860002008600F
:1025AC002AB19A680A60DA68996002B9D960002089
:1025BC0010E0814206D108682060D8688142EDD1D4
:1025CC00DC60EBE7044600680028F2D1002AE8D171
:1025DC006FF0150010BD91FAA1F3B3FA83F370B547
:1025EC000D0E0F2691FAA1F1B1FA81F144599B001D
:1025FC0006FA03F3890024EA03048A402243425179
:10260C0070BD91FAA1F3B3FA83F370B50D0E0326E6
:10261C0091FAA1F1B1FA81F144599B0006FA03F346
:10262C00890024EA03048A402243425170BD91FA86
:10263C00A1F3B3FA83F370B50D0E042691FAA1F150
:10264C00B1FA81F144599B0006FA03F3890024EA9C
:10265C0003048A402243425170BD70B50B46896811
:10266C00054611B15E680C6801B970BD8A682A40D4
:10267C0002D030464B6898471CB1236821461C4653
:10268C00F2E72346FAE770B501241546072904FA48
:10269C0001F288BF01F007014FEA022385BF8C408D
:1026AC001C4342EA030444F08064EA07406822D4E5
:1026BC0015F0060204D12146BDE87040FFF78BBF30
:1026CC00022A01D10422F6E705F4C075802D6FEAC9
:1026DC0014264FEA14220BD192FAA2F20123B2FA79
:1026EC0082F2C168934031400B430822C360E2E799
:1026FC00C3683340F9E76B0654BF01220922214617
:10270C00FFF769FF15F0200218BF0422214605F0DF
:10271C001805FFF78CFF082D05D102222146BDE8D4
:10272C007040FFF76EBF0DB90122F7E70322F5E702
:10273C00F8B50646076912F400300D46134622D050
:10274C009A0719D55C0769D5212213F0100F03F4F1
:10275C00403413D042F08402002C39D11803716834
:10276C0055D501234968AB400B6129467068FFF7CA
:10277C008AFF002C3AD111E00122E6E7990648BF06
:10278C0042F48272E8E712F4803203F4403410D140
:10279C00F4B9224629467068FFF775FF3B6923FAA6
:1027AC0005F2D20722D50122AA4023EA02033B619B
:1027BC001CE0D90608D49A0602D444B90224E8E7EE
:1027CC00B4B94FF48274E4E7ACB98424E1E7022293
:1027DC00D7F810C02CFA05F1C9070ED5D6F804C0ED
:1027EC000028BBD129466046FFF74DFF0020F8BDFD
:1027FC004FF48272ECE78422EAE70121A94041EA16
:10280C000C0139610028A9D129467068ECE75803FE
:10281C0041BF01234968AB404B61A6E76FF08500CF
:10282C00E5E7F8B51F46044640680E461546FFF727
:10283C002AFF032F08D1012303FA06F66368AA05C1
:10284C005B684CBF1E615E610020F8BD30B503684B
:10285C0013600579046804EBC504A34202D36FF03E
:10286C00010030BD5C798C4201D00833F0E70020C8
:10287C00F7E74368C1F34B101B6801F01F01C05808
:10288C0001238B40034214BF01230023002013704B
:10289C00704710B54368C1F34B101A680123845874
:1028AC0001F01F018B4023438350002010BD0122F7
:1028BC0010B54368C1F34B14186801F01F0123587D
:1028CC008A4023EA02032350002010BD38B5044689
:1028DC000D46FFF7DEFF29462046FFF7E8FF0020F4
:1028EC0038BD036882B00193019B43680193019B3F
:1028FC0002B0704708B54368186802680368C2F3F1
:10290C00C002D907036848BF42F002029B07036864
:10291C0048BF42F004025907036848BF42F0200246
:10292C00DB0542BF6FF4807342F008020360D107ED
:10293C0001D5FFF7D6FF930701D5FFF7D2FF51075B
:10294C0001D5FFF7CEFF930601D5FFF7CAFF10465E
:10295C0008BD37B503460D46046819B96FF015006C
:10296C0003B030BD406819698368DB68D3B101AA34
:10297C0098470028F4DB1922019BAD0053436422D5
:10298C00B3FBF5F1B1FBF2F002FB10131B01323378
:10299C00B3FBF2F303EB00130F2BDFD99BB2002038
:1029AC00A360DDE76FF05700DAE710B5436810203D
:1029BC001B681A681206FCD5EFF3118280F312889B
:1029CC00BFF36F8F1C68240604D482F31188BFF305
:1029DC006F8FEEE7596082F31188BFF36F8F10BDD4
:1029EC0008B54368186803681A0701D5FFF779FF23
:1029FC0003689B0649BF43684FF0FF3000200B7003
:102A0C0008BDF7B544680546606800F0B3F818B91E
:102A1C006FF0120003B0F0BD6068216983681B6819
:102A2C00002B42D098470028F4DB0021606A01AAF1
:102A3C00FFF70CFF0028EDDB019B002219791868C9
:102A4C00FEF77CF90028E5DB6E682B6934681F689B
:102A5C00E36823F40053E360B06800F08BF80028BF
:102A6C00D6D0D6E902018368DB6803B1984704F13C
:102A7C000C0353E8003F43F00C0304F10C0141E854
:102A8C000032002AF3D139462846FEF7D5F9002842
:102A9C000EDB337E1BB1636943F008036361E368AB
:102AAC00002043F40053E360B4E76FF05700B1E744
:102ABC006FF01500AEE703691B681B680B60436879
:102ACC001B68DB6803F4C063B3F5806F2FD0A3F5EC
:102ADC00C06CDCF1000343EB0C030B7143681B6807
:102AEC001B6903F44053B3F5805F22D0B3F5405F0C
:102AFC0021D0002B0CBF012303234B7143681B68AF
:102B0C00DA68DB68D20403F4C06316D5002B14BF5B
:102B1C00032304238B71436800201B685B6903F457
:102B2C004073A3F5407253425341CB71704702235B
:102B3C00D3E70023E1E70223DFE7002B14BF0223D6
:102B4C000323E7E710B5436904463BB90020E2686C
:102B5C004042537843F00103537010BD984700284E
:102B6C00F4D00028B8BF4042FF28A8BFFF20E3687C
:102B7C001870ECE740B1C368587810F001001EBF24
:102B8C001878B0FA80F040097047EFF311831023E6
:102B9C0083F31288BFF36F8FFEE708B5FFF7F5FFDD
:102BAC00102408B5EFF3118384F31288BFF36F8FF1
:102BBC00FFF7B8FBF6E7D0E9003213605A60002348
:102BCC00C0E90033704708B5FFF7F5FF037C23F02D
:102BDC00020303740023836008BD10B5EFF3118466
:102BEC00102383F31288BFF36F8FFEF729FD84F354
:102BFC001188BFF36F8F10BD014610B5EFF3118430
:102C0C00102383F31288BFF36F8F037C13F0280F0C
:102C1C000AD183680BB1FFF7D6FF0B7C084623F073
:102C2C0004030B74FEF70CFD84F31188BFF36F8F54
:102C3C0010BD01211838FFF7DFBF08B50246FEF7BB
:102C4C0039FF70B1D0E904319B1A61EBE272B3F138
:102C5C00004F72F1000104DA002AACBF18460020C4
:102C6C0008BD6FF00040FBE7024638B5EFF3118565
:102C7C00102383F31288BFF36F8F0368CBB1FEF779
:102C8C0019FF04461046FEF727FF00224FF00043C1
:102C9C008442C0E9042306D1FEF714FFFFF7CDFFF1
:102CAC000021FEF755FA002085F31188BFF36F8FD2
:102CBC0038BD6FF01500F7E700BF0020704710B467
:102CCC0000F10C04C0E903440024047510BCFFF7A8
:102CDC00B4BA0A44914200F1FF3300D1704710B5E9
:102CEC0011F8014B914203F8014FF9D110BD034685
:102CFC000244934200D1704703F8011BF9E70246E6
:102D0C0010B501448A42134603D01C780132002CC2
:102D1C00F8D1181A10BDF0B504461046C3F13707A8
:102D2C00FFB203F01F03082BE6B233D0102B3ED0BA
:102D3C006508A40844EA817445EAC1752D194FEA67
:102D4C00910242EB5102290941EA02716D1842EBE2
:102D5C001212290A41EA02616D1842EB1222290C67
:102D6C0041EA02416D1842EB1242AD1842F10002E9
:102D7C00EC0844EA4274D10804EB8402A6EB420549
:102D8C00EDB2092D0CD90134A5F10A0541F1000170
:102D9C00EDB212E0E40844EA417406F00705C908F4
:102DAC00303554EA010200F8015BBCD1F0BD2409B6
:102DBC0044EA017406F00F050909092D84BFED19C9
:102DCC00EDB2EDE70148006870470000F801002003
:102DDC00000000005C2E00086901000800000000E3
:102DEC00111D00080000000000000000782E0008F3
:102DFC0000000000E82E000800000000202F000852
:102E0C0000000000942E000800000000042F0008B1
:102E1C0000000000CC2E000800000000B02E0008BE
:102E2C005923000800000000000000003C2F00089F
:102E3C0000000000582F0008110C000800000000D2
:102E4C00C9100008000000008908000800000000FC
:102E5C00C736000800000000003100084E000020BA
:102E6C0000000000F50A0008000000001A370008F6
:102E7C00FC310008F03000085A000020000000006F
:102E8C0000000000000000009B360008000000005D
:102E9C00000000004C00002000000000552300083A
:102EAC0000000000D436000830310008CC30000897
:102EBC00500000208C020020110D000800000000C2
:102ECC00E236000844310008CC30000852000020E3
:102EDC00A0020020110D000800000000F0360008D0
:102EEC0058310008CC30000854000020B4020020F7
:102EFC00110D000800000000FE3600086C310008BF
:102F0C00CC30000856000020C8020020110D00082B
:102F1C00000000000C37000880310008CC3000089D
:102F2C0058000020DC020020110D000800000000F9
:102F3C002B370008003200081C3100085C00002010
:102F4C00140000200F2A0008000000003B37000886
:102F5C00503200081C3100085E00002020000020C8
:082F6C000F2A0008000000001C
:102F740000000000FF22000800000000FF220008FB
:102F840000000000FF22000800000000FF220008EB
:102F940000000000FF22000800000000FF220008DB
:102FA400C536000805090008C336000805090008ED
:102FB400C136000805090008BF36000805090008E5
:102FC400BD3600080509000800000000FF220008C3
:102FD40000000000FF22000800000000FF2200089B
:102FE40000000000FF22000800000000FF2200088B
:102FF40000000000FF22000800000000FF2200087B
:1030040000000000FF22000800000000FF2200086A
:1030140000000000FF22000800000000FF2200085A
:1030240000000000FF220008BB3600080509000864
:1030340000000000FF22000800000000FF2200083A
:1030440000000000FF22000800000000FF2200082A
:1030540000000000FF22000800000000FF2200081A
:1030640000000000FF22000800000000FF2200080A
:1030740000000000FF22000800000000FF220008FA
:1030840000000000FF22000800000000FF220008EA
:1030940000000000FF22000800000000FF220008DA
:1030A40000000000FF22000800000000FF220008CA
:1030B400B93600080509000800000000FF220008D6
:0830C40000000000FF220008DB
:1030CC003D270008512500085D2500086F250008E4
:1030DC007925000883250008610C0008912500085B
:0430EC0000000000E0
:1030F0007F2800089F280008BB280008D92800085E
:103100002B2400086F24000800000000710A00084A
:0C3110001125000800000000B924000890
:10311C00ED290008B729000801290008490F00080B
:04312C00C32A0008AA
:10313000FFFF00000018014004000000180000001C
:1031400040000000FFFF00000014014003000000E9
:103150001800000020000000FFFF000000100140E8
:10316000020000001800000010000000FFFF000037
:10317000000C0140010000001800000008000000E1
:10318000FFFF0000000801400000000018000000E0
:1031900004000000202F0008042F0008E82E00087B
:1031A000CC2E0008B02E0008000000000000000037
:1031B000000000000000000000000000000000000F
:1031C00000000000000000000000000000000000FF
:1031D00000000000000000000000000000000000EF
:1031E00000000000000000000000000000000000DF
:1031F000000000000000000000000000001002407D
:10320000004400405C2E0008782E000811020000E7
:10321000283200080100000000000000000000004B
:1032200000000000303200081C0000000000020016
:10323000383200080100000040320008020000009F
:1032400008180100000000000D1801000000000037
:10325000003801405C2E0008782E00088E01000026
:1032600078320008010000000000000000000000AB
:10327000000000008032000818000000004000003C
:1032800088320008010000009032000802000000AF
:1032900024100100000000002910010000000000BF
:1032A000DC2D0008DC2D00084C2E0008542E0008F0
:1032B0005C2E00085C2E0008001000000030723008
:1032C0002F61313A20203078253038782020723133
:1032D0002F61323A20203078253038782020723221
:1032E0002F61333A20203078253038780A00723345
:1032F0002F61343A202030782530387820723132EE
:103300002F69703A20203078253038782072313497
:103310002F6C723A20203078253038780A002078D7
:103320007073723A20203078253038780A00466170
:10333000756C74696E6720696E73747275637469F5
:103340006F6E206164647265737320287231352F4B
:103350007063293A203078253038780A00556E6835
:10336000616E646C6564204952516E3A2025640A8E
:10337000002A2A2A2A2A20555341474520464155EA
:103380004C54202A2A2A2A2A0A00202044697669D5
:1033900073696F6E206279207A65726F0A0020204F
:1033A000556E616C69676E6564206D656D6F7279CD
:1033B000206163636573730A0020204E6F20636F82
:1033C00070726F636573736F7220696E7374727558
:1033D0006374696F6E730A002020496C6C656761C5
:1033E0006C206C6F6164206F66204558435F5245C6
:1033F0005455524E20696E746F2050430A002020AD
:10340000496C6C6567616C20757365206F6620740C
:10341000686520455053520A002020417474656D40
:10342000707420746F206578656375746520756E9F
:10343000646566696E656420696E73747275637421
:10344000696F6E0A002A2A2A2A2A204255532046EA
:1034500041554C54202A2A2A2A2A0A002020537433
:1034600061636B696E67206572726F720A0020205B
:10347000556E737461636B696E67206572726F72EB
:103480000A0020205072656369736520646174616D
:1034900020627573206572726F720A0020204246A6
:1034A000415220416464726573733A203078257804
:1034B0000A002020496D707265636973652064613C
:1034C000746120627573206572726F720A00202029
:1034D000496E737472756374696F6E2062757320C0
:1034E0006572726F720A002A2A2A2A2A204D5055C4
:1034F000204641554C54202A2A2A2A2A0A002020F4
:10350000537461636B696E67206572726F722028F5
:10351000636F6E746578742061726561206D696790
:103520006874206265206E6F742076616C6964290E
:103530000A00202044617461204163636573732035
:1035400056696F6C6174696F6E0A0020204D4D469C
:10355000415220416464726573733A203078257853
:103560000A002020496E737472756374696F6E204F
:103570004163636573732056696F6C6174696F6E24
:103580000A005265736572766564204578636570DC
:1035900074696F6E20280053707572696F7573209F
:1035A000696E7465727275707420284952512000DA
:1035B000535053454C20696E2074687265616420D5
:1035C0006D6F646520646F6573206E6F7420696E23
:1035D000646963617465205053500A002A2A2A2ABC
:1035E0002A2048415244204641554C54202A2A2A38
:1035F0002A2A0A002020427573206661756C7420A7
:103600006F6E20766563746F72207461626C6520E2
:10361000726561640A0020204465627567206576E2
:10362000656E740A0020204661756C7420657363B2
:10363000616C6174696F6E20287365652062656CCA
:103640006F77290A00415243485F4558434550541B
:10365000207769746820726561736F6E2025780A1F
:103660000A002A2A2A2A2A204465627567206D6F7B
:103670006E69746F7220657863657074696F6E200F
:103680002A2A2A2A2A0A002A2A2A2A2A20257320B4
:10369000256429202A2A2A2A2A0A00696E7465725A
:1036A000727570742D636F6E74726F6C6C6572409E
:1036B0003430303130343030000A0605050401035F
:1036C0000102010101000172636340343030323184
:1036D000303030006770696F40343030313138300D
:1036E00030006770696F4034303031313430300031
:1036F0006770696F4034303031313030300067707E
:10370000696F403430303130633030006770696F3A
:103710004034303031303830300072657365742D8C
:10372000636F6E74726F6C6C657200736572696141
:103730006C4034303030343430300073657269613D
:103740006C4034303031333830300000000000003D
:103750000000000102030406070809010202030435
:1037600005060708090A0B0C0D0E0F10106D616994
:103770006E002A2A2A20426F6F74696E67205A658C
:1037800070687972204F53206275696C64207634BA
:103790002E332E302D343631332D6761303464387A
:1037A00039353763323132202A2A2A0A00286E75C9
:0C37B0006C6C29002A666C6F61742A00A2
:1037BC00C1220008000000004B230008000000009C
:1037CC00000000001800002000C2010000010300EE
:1037DC002400002000C201000001030000127A0046
:1037EC00C80000003400002034000020FFFFFFFF61
:0C37FC00FFFFFFFFFFFFFFFFFFFFFFFFCD
:1038080000000000000000000000000000000000B0
:0438180000000000AC
:10381C000000000028140020000800000000000038
:08382C00000000000000000094
:0438340015E015E0A6
:040000050800066980
:00000001FF
