:020000040800F2
:10000000D81D00200938000859E20008F53700081B
:10001000F5370008F5370008F53700080000000044
:10002000000000000000000000000000B1380008DF
:10003000F53700080000000069380008BD480008D6
:10004000C9390008C9390008C9390008C939000888
:10005000C9390008C9390008C9390008C939000878
:10006000C9390008C9390008C9390008C939000868
:10007000C9390008C9390008C9390008C939000858
:10008000C9390008C9390008C9390008C939000848
:10009000C9390008C9390008C9390008C939000838
:1000A000C9390008C9390008C9390008C939000828
:1000B000C9390008C9390008C9390008C939000818
:1000C000C9390008C9390008C9390008C939000808
:1000D000C9390008C9390008C9390008C9390008F8
:0C00E000C9390008C9390008C9390008F6
:1000F000844641EA000313F0030349D1403A23D375
:100100000B6803604B6843608B688360CB68C36097
:100110000B6903614B6943618B698361CB69C3617F
:100120000B6A03624B6A43628B6A8362CB6AC36267
:100130000B6B03634B6B43638B6B8363CB6BC3634F
:1001400040304031403ADBD230320BD30B68036091
:100150004B6843608B688360CB68C360103010319C
:10016000103AF3D20C3205D351F8043B40F8043B6B
:10017000043AF9D2043208D0D2071CBF11F8013B6F
:1001800000F8013B01D30B8803806046704700BF35
:10019000082A13D38B07B1D010F00303AED0C3F1FC
:1001A0000403D21ADB071CBF11F8013B00F8013B26
:1001B000A4D331F8023B20F8023B9FE7043AD9D39D
:1001C000013A11F8013B00F8013BF9D20B780370BA
:1001D0004B7843708B7883706046704781F00041A4
:1001E00002E000BF83F0004330B54FEA41044FEA1C
:1001F000430594EA050F08BF90EA020F1FBF54EAB7
:10020000000C55EA020C7FEA645C7FEA655C00F052
:10021000E2804FEA5454D4EB5555B8BF6D420CDD23
:100220002C4480EA020281EA030382EA000083EAA6
:10023000010180EA020281EA0303362D88BF30BD46
:1002400011F0004F4FEA01314FF4801C4CEA11319C
:1002500002D0404261EB410113F0004F4FEA0333FB
:100260004CEA133302D0524263EB430394EA050F86
:1002700000F0A780A4F10104D5F1200E0DDB02FAF5
:100280000EFC22FA05F2801841F1000103FA0EF289
:10029000801843FA05F359410EE0A5F120050EF14F
:1002A000200E012A03FA0EFC28BF4CF0020C43FA80
:1002B00005F3C01851EBE37101F0004507D54FF08D
:1002C000000EDCF1000C7EEB00006EEB0101B1F5DD
:1002D000801F1BD3B1F5001F0CD349085FEA300023
:1002E0004FEA3C0C04F101044FEA445212F5800F2E
:1002F00080F09A80BCF1004F08BF5FEA500C50F1CB
:10030000000041EB045141EA050130BD5FEA4C0CAD
:10031000404141EB0101013C28BFB1F5801FE9D20A
:1003200091F0000F04BF01460020B1FA81F308BF2D
:100330002033A3F10B03B3F120020CDA0C3208DDF9
:1003400002F1140CC2F10C0201FA0CF021FA02F1D4
:100350000CE002F11402D8BFC2F1200C01FA02F144
:1003600020FA0CFCDCBF41EA0C019040E41AA2BF69
:1003700001EB0451294330BD6FEA04041F3C1CDA31
:100380000C340EDC04F11404C4F1200220FA04F051
:1003900001FA02F340EA030021FA04F345EA0301FB
:1003A00030BDC4F10C04C4F1200220FA02F001FABD
:1003B00004F340EA0300294630BD21FA04F029463F
:1003C00030BD94F0000F83F4801306BF81F48011D8
:1003D0000134013D4EE77FEA645C18BF7FEA655C4B
:1003E00029D094EA050F08BF90EA020F05D054EA1D
:1003F000000C04BF1946104630BD91EA030F1EBF22
:100400000021002030BD5FEA545C05D14000494125
:1004100028BF41F0004130BD14F580043CBF01F518
:10042000801130BD01F0004545F0FE4141F47001FE
:100430004FF0000030BD7FEA645C1ABF19461046D9
:100440007FEA655C1CBF0B46024650EA013406BFDA
:1004500052EA033591EA030F41F4002130BD00BF99
:1004600090F0000F04BF0021704730B54FF4806456
:1004700004F132044FF000054FF0000150E700BFD7
:1004800090F0000F04BF0021704730B54FF4806436
:1004900004F1320410F0004548BF40424FF0000123
:1004A0003EE700BF42004FEAE2014FEA31014FEA66
:1004B00002701FBF12F07F4393F07F4F81F06051B5
:1004C000704732F07F4208BF704793F07F4F04BF00
:1004D00041F40021704730B54FF4607401F00045DD
:1004E00021F000411CE700BF50EA010208BF70473D
:1004F00030B54FF000050AE050EA010208BF70472E
:1005000030B511F0004502D5404261EB41014FF496
:10051000806404F132045FEA915C3FF4D8AE4FF09E
:1005200003025FEADC0C18BF03325FEADC0C18BF81
:10053000033202EBDC02C2F1200300FA03FC20FAD2
:1005400002F001FA03FE40EA0E0021FA02F114441F
:10055000BDE600BF70B54FF0FF0C4CF4E06C1CEA38
:1005600011541DBF1CEA135594EA0C0F95EA0C0FA9
:1005700000F0DEF82C4481EA030621EA4C5123EA1C
:100580004C5350EA013518BF52EA033541F480114B
:1005900043F4801338D0A0FB02CE4FF00005E1FBFE
:1005A00002E506F00042E0FB03E54FF00006E1FB48
:1005B00003569CF0000F18BF4EF0010EA4F1FF048B
:1005C000B6F5007F64F5407404D25FEA4E0E6D41CB
:1005D00046EB060642EAC62141EA55514FEAC520DC
:1005E00040EA5E504FEACE2EB4F1FD0C88BFBCF558
:1005F000E06F1ED8BEF1004F08BF5FEA500E50F109
:10060000000041EB045170BD06F0004646EA0101CE
:1006100040EA020081EA0301B4EB5C04C2BFD4EB00
:100620000C0541EA045170BD41F480114FF0000EF9
:10063000013C00F3AB8014F1360FDEBF002001F067
:10064000004170BDC4F10004203C35DA0C341BDCE1
:1006500004F11404C4F1200500FA05F320FA04F0B3
:1006600001FA05F240EA020001F0004221F00041E7
:1006700010EBD37021FA04F642EB06015EEA430E5A
:1006800008BF20EAD37070BDC4F10C04C4F120058A
:1006900000FA04F320FA05F001FA04F240EA02003D
:1006A00001F0004110EBD37041F100015EEA430E0E
:1006B00008BF20EAD37070BDC4F1200500FA05F22E
:1006C0004EEA020E20FA04F301FA05F243EA0203AD
:1006D00021FA04F001F0004121FA04F220EA0200BC
:1006E00000EBD3705EEA430E08BF20EAD37070BD02
:1006F00094F0000F0FD101F00046400041EB0101E2
:1007000011F4801F08BF013CF7D041EA060195F0C3
:10071000000F18BF704703F00046520043EB03037D
:1007200013F4801F08BF013DF7D043EA060370476A
:1007300094EA0C0F0CEA135518BF95EA0C0F0CD075
:1007400050EA410618BF52EA4306D1D181EA0301BB
:1007500001F000414FF0000070BD50EA410606BFB5
:100760001046194652EA430619D094EA0C0F02D1FA
:1007700050EA013613D195EA0C0F05D152EA03363F
:100780001CBF104619460AD181EA030101F000415D
:1007900041F0FE4141F470014FF0000070BD41F0A6
:1007A000FE4141F4780170BD70B54FF0FF0C4CF480
:1007B000E06C1CEA11541DBF1CEA135594EA0C0F9F
:1007C00095EA0C0F00F0A7F8A4EB050481EA030EEC
:1007D00052EA03354FEA013100F088804FEA0333D3
:1007E0004FF0805545EA131343EA12634FEA0222A1
:1007F00045EA111545EA10654FEA00260EF0004162
:100800009D4208BF964244F1FD0404F5407402D2B3
:100810005B084FEA3202B61A65EB03055B084FEA44
:1008200032024FF480104FF4002CB6EB020E75EB41
:10083000030E22BFB61A754640EA0C005B084FEA69
:100840003202B6EB020E75EB030E22BFB61A7546E6
:1008500040EA5C005B084FEA3202B6EB020E75EB31
:10086000030E22BFB61A754640EA9C005B084FEAA9
:100870003202B6EB020E75EB030E22BFB61A7546B6
:1008800040EADC0055EA060E18D04FEA051545EAA5
:1008900016754FEA06164FEAC30343EA52734FEA4E
:1008A000C2025FEA1C1CC0D111F4801F0BD141EAC7
:1008B00000014FF000004FF0004CB6E711F4801F2C
:1008C00004BF01430020B4F1FD0C88BFBCF5E06F0C
:1008D0003FF6AFAEB5EB030C04BFB6EB020C5FEA1C
:1008E000500C50F1000041EB045170BD0EF0004E71
:1008F0004EEA113114EB5C04C2BFD4EB0C0541EAA3
:10090000045170BD41F480114FF0000E013C90E69F
:1009100045EA060E8DE60CEA135594EA0C0F08BF63
:1009200095EA0C0F3FF43BAF94EA0C0F0AD150EA62
:1009300001347FF434AF95EA0C0F7FF425AF1046F5
:1009400019462CE795EA0C0F06D152EA03353FF41D
:10095000FDAE1046194622E750EA410618BF52EA9A
:1009600043067FF4C5AE50EA41047FF40DAF52EA6E
:1009700043057FF4EBAE12E74FF0FF3C06E000BF0B
:100980004FF0010C02E000BF4FF0010C4DF804CD18
:100990004FEA410C7FEA6C5C4FEA430C18BF7FEAD8
:1009A0006C5C1BD001B050EA410C0CBF52EA430C06
:1009B00091EA030F02BF90EA020F0020704710F186
:1009C000000F91EA030F58BF994208BF90422CBF15
:1009D000D8176FEAE37040F0010070474FEA410C0E
:1009E0007FEA6C5C02D150EA013C07D14FEA430C2C
:1009F0007FEA6C5CD6D152EA033CD3D05DF8040B9D
:100A0000704700BF8446104662468C4619466346CE
:100A100000E000BF01B5FFF7B7FF002848BF10F1A5
:100A2000000F01BD4DF808EDFFF7F4FF0CBF0120EA
:100A300000205DF808FB00BF4DF808EDFFF7EAFF66
:100A400034BF012000205DF808FB00BF4DF808ED21
:100A5000FFF7E0FF94BF012000205DF808FB00BF16
:100A60004DF808EDFFF7CEFF94BF012000205DF8A0
:100A700008FB00BF4DF808EDFFF7C4FF34BF0120AD
:100A800000205DF808FB00BF4FEA410C7FEA6C5C78
:100A900002D150EA013C0AD14FEA430C7FEA6C5C78
:100AA00002D152EA033C02D14FF0000070474FF0F0
:100AB000010070474FEA410212F5001215D211D51C
:100AC0006FF47873B3EB625212D94FEAC12343F04B
:100AD000004343EA505311F0004F23FA02F018BFCD
:100AE000404270474FF00000704750EA013005D196
:100AF00011F0004008BF6FF0004070474FF0000059
:100B0000704700BF4A0011D212F5001211D20DD564
:100B10006FF47873B3EB62520ED44FEAC12343F003
:100B2000004343EA505323FA02F070474FF00000AD
:100B3000704750EA013002D14FF0FF3070474FF05C
:100B4000000070474FEA4102B2F1E04324BFB3F521
:100B5000001CDCF1FE5C0DD901F0004C4FEAC00234
:100B60004CEA5070B2F1004F40EB830008BF20F018
:100B70000100704711F0804F21D113F13872BCBFD2
:100B800001F00040704741F480114FEA5252C2F127
:100B90001802C2F1200C10FA0CF320FA02F018BF70
:100BA00040F001004FEAC1234FEAD32303FA0CFCC3
:100BB00040EA0C0023FA02F34FEA4303CCE77FEA52
:100BC000625307D150EA01331EBF4FF0FE4040F49C
:100BD0004000704701F0004040F0FE4040F400004B
:100BE000704700BF80F0004002E000BF81F000418C
:100BF00042001FBF5FEA410392EA030F7FEA226CC3
:100C00007FEA236C6AD04FEA1262D2EB1363C1BF52
:100C1000D218414048404140B8BF5B42192B88BFC1
:100C2000704710F0004F40F4000020F07F4018BFE4
:100C3000404211F0004F41F4000121F07F4118BF04
:100C4000494292EA030F3FD0A2F1010241FA03FCAC
:100C500010EB0C00C3F1200301FA03F100F0004394
:100C600002D5494260EB4000B0F5000F13D3B0F15C
:100C7000807F06D340084FEA310102F10102FE2ACB
:100C800051D2B1F1004F40EBC25008BF20F001003B
:100C900040EA03007047490040EB0000013A28BFDA
:100CA000B0F5000FEDD2B0FA80FCACF1080CB2EB5D
:100CB0000C0200FA0CF0AABF00EBC25052421843DB
:100CC000BCBFD0401843704792F0000F81F4000180
:100CD00006BF80F400000132013BB5E74FEA410353
:100CE0007FEA226C18BF7FEA236C21D092EA030FBF
:100CF00004D092F0000F08BF0846704790EA010F39
:100D00001CBF0020704712F07F4F04D1400028BF65
:100D100040F00040704712F100723CBF00F5000047
:100D2000704700F0004343F0FE4040F4000070477D
:100D30007FEA226216BF08467FEA23630146420229
:100D400006BF5FEA412390EA010F40F4800070473C
:100D50004FF0000304E000BF10F0004348BF4042E2
:100D60005FEA000C08BF704743F0964301464FF01E
:100D700000001CE050EA010208BF70474FF000037A
:100D80000AE000BF50EA010208BF704711F00043BB
:100D900002D5404261EB41015FEA010C02BF84468B
:100DA0000146002043F0B64308BFA3F18053A3F5EA
:100DB0000003BCFA8CF2083AA3EBC25310DB01FA31
:100DC00002FC634400FA02FCC2F12002BCF1004FB5
:100DD00020FA02F243EB020008BF20F00100704746
:100DE00002F1200201FA02FCC2F1200250EA4C009A
:100DF00021FA02F243EB020008BF20EADC707047E0
:100E00004FF0FF0C1CEAD0521EBF1CEAD15392EAED
:100E10000C0F93EA0C0F6FD01A4480EA010C4002C9
:100E200018BF5FEA41211ED04FF0006343EA501023
:100E300043EA5111A0FB01310CF00040B1F5000F65
:100E40003EBF490041EAD3715B0040EA010062F114
:100E50007F02FD2A1DD8B3F1004F40EBC25008BFFE
:100E600020F00100704790F0000F0CF0004C08BF1C
:100E700049024CEA502040EA51207F3AC2BFD2F1E9
:100E8000FF0340EAC250704740F400004FF00003F7
:100E9000013A5DDC12F1190FDCBF00F00040704731
:100EA000C2F10002410021FA02F1C2F1200200FA6F
:100EB00002FC5FEA310040F1000053EA4C0308BF36
:100EC00020EADC70704792F0000F00F0004C02BF87
:100ED000400010F4000F013AF9D040EA0C0093F002
:100EE000000F01F0004C02BF490011F4000F013B5C
:100EF000F9D041EA0C018FE70CEAD15392EA0C0FCA
:100F000018BF93EA0C0F0AD030F0004C18BF31F034
:100F1000004CD8D180EA010000F00040704790F00A
:100F2000000F17BF90F0004F084691F0000F91F0AE
:100F3000004F14D092EA0C0F01D142020FD193EA74
:100F40000C0F03D14B0218BF084608D180EA0100FC
:100F500000F0004040F0FE4040F40000704740F0D8
:100F6000FE4040F4400070474FF0FF0C1CEAD052A6
:100F70001EBF1CEAD15392EA0C0F93EA0C0F69D002
:100F8000A2EB030280EA010C49024FEA402037D06D
:100F90004FF0805343EA111143EA10130CF0004064
:100FA0008B4238BF5B0042F17D024FF4000C8B4254
:100FB00024BF5B1A40EA0C00B3EB510F24BFA3EB34
:100FC000510340EA5C00B3EB910F24BFA3EB910304
:100FD00040EA9C00B3EBD10F24BFA3EBD10340EA5E
:100FE000DC001B0118BF5FEA1C1CE0D1FD2A3FF6A4
:100FF00050AF8B4240EBC25008BF20F00100704759
:101000000CF0004C4CEA50207F32C2BFD2F1FF03FB
:1010100040EAC250704740F400004FF00003013A2C
:1010200037E792F0000F00F0004C02BF400010F4D0
:10103000000F013AF9D040EA0C0093F0000F01F0E4
:10104000004C02BF490011F4000F013BF9D041EA06
:101050000C0195E70CEAD15392EA0C0F08D1420239
:101060007FF47DAF93EA0C0F7FF470AF084676E70C
:1010700093EA0C0F04D14B023FF44CAF08466EE7E5
:1010800030F0004C18BF31F0004CCAD130F00042B3
:101090007FF45CAF31F000437FF43CAF5FE700BF0B
:1010A0004FF0FF3C06E000BF4FF0010C02E000BF34
:1010B0004FF0010C4DF804CD4FEA40024FEA4103D6
:1010C0007FEA226C18BF7FEA236C11D001B052EA8C
:1010D000530C18BF90EA010F58BFB2EB030088BF52
:1010E000C81738BF6FEAE17018BF40F001007047C1
:1010F0007FEA226C02D15FEA402C05D17FEA236CA3
:10110000E4D15FEA412CE1D05DF8040B704700BFE9
:10111000844608466146FFE70FB5FFF7C9FF002880
:1011200048BF10F1000F0FBD4DF808EDFFF7F4FFB9
:101130000CBF012000205DF808FB00BF4DF808ED52
:10114000FFF7EAFF34BF012000205DF808FB00BF75
:101150004DF808EDFFF7E0FF94BF012000205DF897
:1011600008FB00BF4DF808EDFFF7D2FF94BF012048
:1011700000205DF808FB00BF4DF808EDFFF7C8FF41
:1011800034BF012000205DF808FB00BF4FEA400299
:10119000B2F1FE4F0FD34FF09E03B3EB12620DD9A5
:1011A0004FEA002343F0004310F0004F23FA02F00F
:1011B00018BF404270474FF00000704712F1610FB6
:1011C00001D1420205D110F0004008BF6FF000408D
:1011D00070474FF00000704742000ED2B2F1FE4F50
:1011E0000BD34FF09E03B3EB126209D44FEA0023F6
:1011F00043F0004323FA02F070474FF000007047BD
:1012000012F1610F01D1420202D14FF0FF3070475D
:101210004FF00000704700BF53B94AB9002908BF1A
:1012200000281CBF4FF0FF314FF0FF3000F00CB82A
:10123000ADF1080C6DE904CE00F008F8DDF804E02B
:10124000DDE9022304B07047704700BF2DE9F04785
:1012500086468C460846154674461946089E002B5D
:1012600040F0C2808542B2FA82F245D94AB1C2F159
:10127000200300FA02FC2EFA03F3954043EA0C0C1B
:1012800094404FEA154EBCFBFEF8A8B20EFB18CCFA
:1012900008FB00F9230C43EA0C43994528D9EB18C5
:1012A00008F1FF3704D2994502D9A8F102072B446F
:1012B000A3EB0903B3FBFEFC0EFB1C330CFB00F09D
:1012C000A4B244EA0344A04214D92C190CF1FF3310
:1012D00004D2A04202D9ACF102032C44241A43EAFE
:1012E00007401EB10023D44034607360BDE8F0872E
:1012F0004746DDE76346F1E792BB0121431B4FEA16
:10130000154EB3FBFEFCAFB20EFB1C330CFB07F813
:10131000200C40EA0343984562D9EB180CF1FF30EA
:1013200004D2984502D9ACF102002B44A3EB080388
:10133000B3FBFEFC0EFB1C330CFB07F7A4B244EA24
:101340000344A7424ED92C190CF1FF3304D2A74213
:1013500002D9ACF102032C44E41B43EA0040C0E78D
:10136000C2F12003954020FA03F12EFA03F34FEA6D
:10137000154EB1FBFEFC90400343AFB20EFB1C10B8
:101380000CFB07F8190C41EA0041884504FA02F405
:1013900022D969180CF1FF3004D2884502D9ACF18A
:1013A00002002944A1EB0801B1FBFEFC0EFB1C115D
:1013B0000CFB07F79BB243EA01439F420ED9EB189F
:1013C0000CF1FF3104D29F4202D9ACF102012B444F
:1013D000DB1B41EA004192E76046E3E76146F7E73D
:1013E0006046A3E76346B7E7834206D916B90021F2
:1013F00008467BE7C6E900E0F9E7B3FA83F78FB95F
:10140000834201D3724508D8BEEB020460EB0303AC
:1014100001209C461EB9002168E73846FAE7C6E974
:10142000004CF8E7C7F1200CBB4022FA0CF41C4337
:101430004FEA144920FA0CF3B3FBF9F8B8402EFA3E
:101440000CF101430EFA07F509FB18301FFA84FE70
:1014500008FB0EFA0B0C43EA00439A4502FA07F226
:1014600040D9E31808F1FF3004D29A4502D9A8F117
:1014700002002344A3EB0A03B3FBF9F809FB18337A
:1014800008FB0EFE89B241EA03418E452CD9611852
:1014900008F1FF3304D28E4502D9A8F1020321449A
:1014A00043EA0040A0FB0298A1EB0E014145CE4665
:1014B000434602D306D14D4504D2B9EB020E68EB88
:1014C00004030138002EA6D0B5EB0E0261EB030138
:1014D00001FA0CFC22FA07F34CEA0303F940C6E9CF
:1014E000003198E74046C5E74346D9E700000000D1
:1014F000C1F30A5C2DE9F041ACF2FF35132D024631
:101500000B460C46064634DC002D20DBDFF8D88085
:101510000F4648FA05F801EA080C5CEA000C2DD0E9
:101520002FA3D3E90023FEF75FFE00220023FFF77D
:10153000A1FA40B1002C03DD4FF480132B411F446E
:10154000002627EA080421463046BDE8F08124A39E
:10155000D3E90023FEF748FE00220023FFF78AFAB2
:101560000028F0D0002C35DB344331D000261F4C4E
:10157000E9E7332D06DDB5F5806F26D01046194614
:10158000BDE8F0814FF0FF37ACF2134C27FA0CF7AF
:101590003842F3D012A3D3E90023FEF725FE002240
:1015A0000023FFF767FA0028CDD0002C334609DD71
:1015B000142D06D00122C5F13405AA4013449E42E1
:1015C00000D9013423EA0706BDE7FEF70DFED7E791
:1015D0002646B8E700264FF00044B4E7AFF300809A
:1015E0009C7500883CE4377EFFFF0F000000F03F51
:1015F000C1F30A5C2DE9F041ACF2FF35132D024630
:101600000B460C46064632DC002D20DBDFF8E0807E
:101610000F4648FA05F801EA080C5CEA000C2BD0EA
:1016200031A3D3E90023FEF7DFFD00220023FFF7FB
:1016300021FA40B1002C03DA4FF480132B411F44F0
:10164000002627EA080421463046BDE8F08126A39B
:10165000D3E90023FEF7C8FD00220023FFF70AFAB2
:101660000028F0D0002C27DB00263446EBE7332D92
:1016700006DDB5F5806F1CD010461946BDE8F08137
:101680004FF0FF37ACF2134C27FA0CF70742F3D0B8
:1016900015A3D3E90023FEF7A7FD00220023FFF7DF
:1016A000E9F90028CFD0002C33460CDB23EA0706EB
:1016B000C9E7FEF799FDE1E724F0004426430DD188
:1016C0004FF00044BFE7142D06D00122C5F13405C8
:1016D000AA401344B342E9D20134E7E70026054C9F
:1016E000B1E700BFAFF300809C7500883CE4377E13
:1016F000FFFF0F000000F0BF2DE9F04F16461F4618
:10170000016C9FB0CDE904672B9D039049B1012383
:10171000426C044693408B604A600AF087FD0023C8
:101720002364B7F10009B4BF012300232B60784B79
:10173000BCBF29F00049CDF8149033EA090300F04A
:10174000AB80DDE904341846214600220023CDE9B0
:101750000801FFF767F9804668B101232A9A1360F0
:101760002C9B13B16B4B2C9A13606B4B0A930A980A
:101770001FB0BDE8F08F1CAB01931DAB0093039825
:10178000DDE908230BF07EF85FEA1955824640F048
:101790009980DDE91C85454405F23243202B40F356
:1017A0008683C3F1400309FA03F905F2124326FACE
:1017B00003F349EA0300FEF753FE0123013D1193B1
:1017C000A1F1F8710022554BFEF70CFD4AA3D3E9B5
:1017D0000023FEF7BFFE4AA3D3E90023FEF704FD72
:1017E000064628460F46FEF74BFE47A3D3E90023E3
:1017F000FEF7B0FE02460B4630463946FEF7F4FCD3
:1018000006460F46FFF756F900228346002330466E
:101810003946FFF711F9002840F01D83A8EB0508B1
:10182000BBF1160F08F1FF3400F29081DDE90801E9
:101830003B4D05EBCB05D5E90023FFF7FDF800286C
:1018400074D00023002C0BF1FF3B1093C0F2838176
:1018500000230B93BBF1000F6EDA0B9BCDF838B071
:10186000A3EB0B030B93CBF100030F93289B4FF0DB
:10187000000B092B68D8052B40F31E830025043B81
:101880002893289B023B032B00F22986DFE813F004
:101890006304600457043B0442F20F732A9AC9F3AD
:1018A000130959EA060913601CD12C9B002B00F088
:1018B00031861C4B0A9308332C9A0A9813601FB088
:1018C000BDE8F08FDDE90812C2F31303084643F0C8
:1018D0007F51CDF84480A5F2FF35DDF8708041F4EA
:1018E00040116FE72C9B002B40F0EA830E4B0A93CC
:1018F0003DE700BFAFF3008061436F63A787D23F2E
:10190000B3C8608B288AC63FFB799F501344D33FEE
:101910000000F07F4D2001084C2001080000F83F36
:10192000E0170108902001089C200108B8F1000F81
:1019300040F3608410900B9000230F93289B5C442D
:10194000092BCDF838B096D9002328934FF0FF33F8
:101950000125069300230C9529930021069B1893DB
:10196000039B596403980AF03BFC0A90002800F09E
:10197000BF85039B0A9A1A64069B0E2B00F2158101
:10198000002D00F012810E9A002A40F33A84B24DE5
:1019900002F00F0305EBC303D0054FEA2215D3E98C
:1019A000008940F1F983DDE90801AC4B0327D3E955
:1019B0000823FEF7F9FECDE9120105F00F057DB110
:1019C000A64EE90708D5D6E9002340464946FEF76A
:1019D000C1FD8046894601376D1006F10806F0D139
:1019E000DDE9120142464B46FEF7DEFE804689469F
:1019F000109B43B1002240464946994BFFF71CF823
:101A0000002840F0F3843846FEF73AFD42464B4644
:101A1000FEF7A0FD934B0022FEF7E6FB069B064671
:101A2000A1F15077002B00F0A9800E9B1993069B23
:101A300012930A9B49464046CDE914675E1CFFF7A6
:101A400039F8854D1299074605EBC10353E9021297
:101A5000CDE91612FEF714FD02460B4640464946F4
:101A6000FEF7C0FBDDE9162389460C993037804626
:101A7000FFB2002900F0548400207B49FEF794FE59
:101A8000DDE91423FEF7AEFB02460B460A9DCDE9C5
:101A900014232F7042464B46FEF7ECFF002840F01F
:101AA0009984CDE91AB4CDF858A00027DDE914AB2C
:101AB000129D2AE00137AF4280F2E0845046594639
:101AC00000226A4BFEF746FD0022684B82468B4699
:101AD00040464946FEF73EFD89468046FEF7EAFF4E
:101AE0000446FEF7CDFC02460B4640464946FEF74B
:101AF00079FB303452465B4606F8014B80468946F6
:101B0000FEF79AFF002840F0B68442464B4600207C
:101B10005349FEF767FB52465B46FEF78DFF0028F0
:101B2000C8D0199B3746DDF858A00A9A03F101087E
:101B300002E0974200F07E843E4617F8013D392BC3
:101B4000F7D00133DBB245463B7073E10123002C33
:101B50001093BFF67DAEC8F1010300240B9379E624
:101B60003846FEF78DFC42464B46FEF7F3FC00225A
:101B70003C4BFEF739FB0646A1F1507740464946FB
:101B800000223B4BFEF72EFB32463B468046894601
:101B9000FEF770FF002840F05C844046494632461C
:101BA00007F10043FEF748FF28BB1D9B002BC0F246
:101BB00091800E9A0E2A00F38D80274D0E9B05EB27
:101BC000C305D5E90034CDE90434299B002B19DA8B
:101BD000069B002B16DC0ED1DDE904010022244B0C
:101BE000FEF7B8FC02460B46DDE90801FEF72EFFC2
:101BF000002800F02E844FF000094F460A9E299BD2
:101C0000DD4324E2DDE90445DDE9088922462B466F
:101C100040464946FEF7C8FDFEF74CFF0646FEF774
:101C20002FFC22462B46FEF795FC0A9F0B460246E8
:101C300049464046FEF7D6FA06F1300307F8013B65
:101C4000069B012B00F011830125CDF818A09946C1
:101C5000DDE904ABA8462BE0E0170108B81701083E
:101C60000000F03F00001C400000E03F0000244066
:101C70000000144052465B4620462946FEF794FD7C
:101C8000FEF718FF0646FEF7FBFB52465B46FEF7E3
:101C900061FC08F101080B46024629462046FEF782
:101CA000A1FA06F13003C84507F8013B00F0DB82DA
:101CB0000022B94BFEF74EFC0022002304460D46DD
:101CC000FEF7B0FE0028D5D00E9D3E46DDF818A0E8
:101CD0000135AFE00C9A002A40F0D18000231F4666
:101CE0000F9E0B9D0C9355B1002C08DDA5422B4691
:101CF000A8BF23460B9AED1AD21A0B92E41A0F9B37
:101D000053B10C9B13B1002E40F0E88251460F9A5C
:101D100003980AF017FC8246012103980AF032FB6F
:101D20008146BBF1000F40F0B681289B012B40F3A8
:101D3000CC810120204410F01F0000F09980C0F1F8
:101D40002003042B40F3DA810B9BC0F11C000344F9
:101D50000B93054404440B9B002B05DD51461A46AA
:101D600003980AF049FC8246002C05DD49462246CC
:101D700003980AF041FC8146109B002B40F07081D3
:101D8000069B002B40F348810C9B002B40F0A38066
:101D90000E9D01350126DDF82880069CDDF80CB08B
:101DA00007E0514600230A2258460AF049FA8246C3
:101DB00001364946504609F01DFCA64200F13003A9
:101DC00008F8013BEDDB069A0024002ACCBF16463A
:101DD00001260A9A02EB060B51460122039804934E
:101DE0000AF00AFC494682460AF07CFC002840F3CF
:101DF000E4810A9A02E05A4500F0EA811BF8013CAE
:101E00005E46392B0BF1FF3BF5D001338BF80030E8
:101E1000DDF80C80494640460AF008FA57B12CB16B
:101E2000BC4203D0214640460AF000FA39460398E6
:101E30000AF0FCF9514603980AF0F8F900233370D0
:101E40002A9B1D602C9B002B3FF491AC0A981E60CE
:101E50001FB0BDE8F08F5846FEF712FB32463B46F6
:101E6000FEF7E0FD00287FF4D9AC0BF1FF3BD5E491
:101E70001C230B9A1D441A440B921C446BE7289AAE
:101E8000012A40F3AA81069A0F9B561EB342C0F264
:101E90006C81002AA3EB060680F2E1820B9B069A76
:101EA0009D1A012103980AF06DFA07461BE7C3F15A
:101EB000200306FA03F07EE40125E2E4394600231C
:101EC0000A2203980AF0BCF9189B0746002B40F33E
:101ED000F3820E960693002D00F34081BBF1000FB4
:101EE00040F0E081B8460A9B069C1E46013B1C441C
:101EF000049B03F00103CDE90B43039C4946504684
:101F000009F078FB3946834650460AF0EBFB42461F
:101F10004946054620460AF005FCC26801460BF119
:101F20003003002A3AD10690504608930AF0DAFBB3
:101F300002460699204606920AF078F9069A089B0E
:101F4000002A59D1289A1AB90C9A002A00F09C82CA
:101F5000002D44DBB3460B9A0BF8013BB24200F074
:101F6000B881514600230A2220460AF069F9474504
:101F7000824639464FF000034FF00A02204635D022
:101F80000AF05EF94146074600230A2220460AF07D
:101F900057F95E468046B1E7000024400398069357
:101FA0000AF044F9002D069B06DB049A289902F0FA
:101FB00001020D432A432AD151460122039804937A
:101FC0000AF01AFB494682460AF08CFB0028049B63
:101FD00040F3E880392B00F032820BF131030E9D83
:101FE0003C460135474606F8013B11E70AF028F95F
:101FF0005E460746804681E7002DC0F28082289920
:102000000D430C990D4300F07A82002AA2DD392B92
:1020100000F015820133E2E7289B022B7FF7B4AE74
:10202000069B002B40F01D814946052203980AF0CB
:1020300007F98146504649460AF054FB002840F310
:10204000108131230E9D0A9E013506F8013B494659
:10205000039801350AF0EAF8002F7FF4E7AEE9E6CD
:10206000494650460AF03EFB0028BFF689AE51466D
:1020700000230A2203980AF0E3F80E9B82465E1EB4
:102080000C9B002B7FF41AAF189B002B40F30282AD
:102090000E9D06937EE601465A4603980AF052FAD0
:1020A000289B8146012B6CDD4FF0000BD9F81030D6
:1020B00009EB830318690AF015F9C0F1200039E62D
:1020C000934B0A930333FFF7F7BB049B002B7FF47A
:1020D00030AEDDE90412C2F31303002B7FF429AE06
:1020E0008C4B134023B10B9B013401330B93012321
:1020F000BBF1000F40F0B1819B461AE63FF42BAED6
:10210000C0F13C03B5E601230C93299B0E9A1344BE
:1021100018930133012B1E46B8BF01260693172ED4
:1021200040F3D881012204235B0003F11400B04284
:10213000114602F10102F7D9039B596412E401230D
:102140000C93299B002B33DD1E4618930693E6E77C
:1021500000230C93D9E700230C93F2E739462A4673
:1021600003980AF049FA0746B8E60F9B069AF31A55
:102170009B440B9B0F961D461344002614440B935F
:102180008FE6049B002B8FD1DDE90401C1F313031B
:102190000A46002B88D1A3E7DDE908230227CDE911
:1021A00012230CE47FF41BAFDC077FF518AF11E7B7
:1021B000012329930693FFF7D0BB03D1049BD807D3
:1021C0003FF517AE5E461BF8013D302BFAD01FE6F7
:1021D00031230A9A013513701AE6119A002A00F089
:1021E000FC8003F233430B9A0F9E15461A441C449D
:1021F0000B9256E6C8F1010304460B931090FFF7CB
:102200009BBB00F0EE80DDE908010E9B424D5E4273
:1022100006F00F0305EBC303D3E90023FEF79AF999
:102220003511CDE9120100F05081002302278046CC
:1022300089463A4EEA0709D5D6E900234046494681
:10224000FEF788F901238046894601376D1006F1B3
:102250000806EFD1002B7FF4CBABDDE91289FFF745
:10226000C7BB0A9ECBE4DDF818A002460B46FDF77B
:10227000BBFF02460B460E9DCDE90623DDE9042394
:102280000135A846FEF7F6FB40B9DDE90423DDE998
:102290000601FEF7C7FB18B1F60701D50A9A4BE411
:1022A0003E46C7E50398796809F09AFF054600287D
:1022B00000F029813B6907F10C0102339A000C30D0
:1022C000FDF716FF2946012203980AF095F980468A
:1022D00009E60E9D3C46013547467DE5DDF80C904C
:1022E0003946324648460AF02DF9074652463946E5
:1022F00048460AF075F880465146484609F096FF70
:102300000F9BC2469B1B0F933FF406ADFEE400BF3C
:102310009C2001080000F07FE0170108B8170108B1
:10232000DDE91401FEF716F90A9BCDE90C011F70D7
:10233000129B012B00F0C780129F0A9BCDF844B07E
:102340001F4400227B4B40464946FEF703F989466D
:102350008046FEF7AFFB8346FEF792F802460B4637
:1023600040464946FDF73EFF0BF1300B06F801BB36
:10237000B74280468946E4D1DDF844B00022DDE969
:102380000C016D4BFDF730FF02460B4640464946B7
:10239000FEF770FB002868D1DDE90C2300206649B8
:1023A000FDF720FF02460B4640464946FEF744FB38
:1023B00048B91D9B002BFFF691AC0E9B0E2B3FF7EF
:1023C0008DACFFF7FBBB17F8013C3E46302B07F105
:1023D000FF37F8D0199D01352CE51C9BC3F136035E
:1023E00001E70227DDE90889FFF702BB069B002B06
:1023F0003FF4B6AB189B002B7FF7D7AB12930E9B25
:102400000022013B4046494619934A4BFEF7A2F889
:1024100080468946781CFEF733F842464B46FEF765
:1024200099F80022454BFDF7DFFE0646A1F15077F3
:10243000FFF7FFBA312308F10108FFF784BBB34669
:1024400039230E9D3C460A9A474601350BF8013B5D
:10245000D4E44FF000094F46F3E59B4626E60B9B7C
:1024600014441D4613440B931BE5199B0A9A03F170
:102470000108FFF761BBDDF858A0ABE7DDF858A015
:10248000DDE91AB4FFF791BB392BD8D0002D3FF707
:10249000A4ADA4E5289B022B0ADC189B49460693B1
:1024A0000E9D09F0A7F80A9A00F1300313708AE430
:1024B000189B0E960693B3E5289B022BF8DC189B1D
:1024C0000E96069307E5374658E70227DDE912899D
:1024D000FFF78EBA0021039B5964FFF743BA00252A
:1024E000039B294618465D6409F07AFE0A90A8B954
:1024F00000224FF4D571124B12480BF033FC002A26
:102500007FF76DAD58E5024640F2EA210C4B0D48CD
:102510000BF028FC0C4B0A93FFF729B9039B0A9A8E
:1025200029951A644FF0FF33012218930C920693F9
:10253000FFF73BBB000024400000E03F00001C40D0
:10254000A0200108B42001089020010870B51646AB
:102550000925084C013D00D170BD237A3BB162686A
:102560002AB1236826FA03F3DB0700D590470C3421
:10257000F0E700BFE40A00200122014B1A70704707
:10258000CC0C002010B50446044805F011FCE369AA
:10259000A3624FF48073E36210BD00BFEC21010819
:1025A0002DE9F04F82460D46984691468DB0CAB14E
:1025B00000F1280104AE006A06AFB5B1002B3CD093
:1025C000CDE906320123CDE90452CDE90863CDE916
:1025D0000A7308AA0AAB0BF0C6FC014610B11E48EC
:1025E00005F092FB0DB0BDE8F08F2C464FF0010BCB
:1025F0002DB32B5D8DF80E304FF000038DF80F30AA
:102600000DF10E0304930DF10F030693DAF8200089
:102610000AAB08AA0191CDE9086BCDE90A7BCDF898
:1026200014B0CDF81CB00BF09EFC019948B10146E6
:1026300022460A4805F068FBD4E71C46D6E7FF238C
:10264000D8E7B8F1000F03D09DF80F3008F8043038
:102650000134A145CCD1C5E7F521010810220108BC
:102660002DE9F0410546481C1E4651D1BDE8F081D8
:10267000047A5CBB0127C0E900120772CCB2286D56
:102680004FF4803221460BF0CCFC286D8268036940
:10269000D2F81880B8F1000F23D1092200240120BC
:1026A0001D4B013A2CD105F14406286D31460BF043
:1026B00091FC1A4B286DC5E912348368DB69002B45
:1026C000D4D03146BDE8F0410122184704688C425D
:1026D000D0D00C30013BCBD1BDE8F041104805F023
:1026E00067BB320205D51B68A7401F4218BF86F0A2
:1026F000C0660C4B2146334006F0B072C047CCE7B1
:10270000197A19B1196800FA01F10C430C33C8E7C2
:1027100009230148DEE700BFE40A00204D25000838
:1027200036220108400000064B1C70B505460C46D9
:1027300018D0006DC9B283689E691EB100234FF4A2
:102740000012B047286D05F144010BF043FC09224B
:10275000064B013A06D0197A29B119688C4202D188
:1027600000221A7270BD0C33F3E700BFE40A0020A8
:102770002DE9F04FADF5377DBA480CF0D6FA38B9EF
:10278000B9480BF032FD00200DF5377DBDE8F08F24
:10279000B6480CF0CAFA08B9B548F2E7B3480CF0ED
:1027A000C4FA08B9B348ECE74FF4D0120421AF489B
:1027B0000BF037FC4FF480320821AC480BF031FCB1
:1027C0004FF480320A21A9480BF02BFC4FF4D012B1
:1027D0000921A6480BF025FC01220921A3480BF092
:1027E000FFFB05200BF07BFC0821A0480BF0A7FBAA
:1027F0000A2104469D480BF0A2FB092105469B488F
:102800000BF09DFB2A46034621469B480BF0EDFC4E
:102810000022092195480BF0E3FB02200BF05FFC3E
:102820000122092191480BF0DBFB0A200BF057FC39
:1028300008218E480BF083FB0A2104468B480BF0DD
:102840007EFB0921054689480BF079FB2A460346A1
:1028500021468A480BF0C9FC0025DFF82492DFF8F6
:1028600024B209F1030A162200210DF58F7005F03C
:10287000EFF9B9F800100BAEADF82810BAF8001057
:102880004FF00108318003217F4B784F46933BF88E
:10289000023B0AAA43F48073ADF81C3199F8023068
:1028A0000EAC8DF82A309AF80230CDE90C21C4E93B
:1028B0000061B37000220CAB04213846CDE91E380C
:1028C000CDE930480BF08CFB05200CF008FA30AB5A
:1028D0001EAA46A963480BF046FB079005200CF0A2
:1028E000FEF94246042138460BF07AFB33787278C1
:1028F0000A213846B678099308920BF020FB089A13
:102900002946CDE901600092099B079A5F4845443A
:102910000BF06BFC042DA6D14FF0A8634FF0507163
:102920004FF40032CDE90131CDF8008000234FF49F
:10293000803130A803F06AF80926CDE944770A27E8
:10294000534B1C223093534B00213793454B3AA8ED
:10295000CDE9383505F07CF9602200214E4805F0BC
:1029600077F94E4805F024FA2A46082330A9CDE924
:1029700000671EA803F060F81EA946A803F082F8BD
:1029800047480BF032FC00230593002304930823EF
:102990001220CDE902730723424ACDE900304249B3
:1029A000334646A80CF087FE054620B101463F4855
:1029B0000BF01BFCE7E63E483E4E0BF016FC3E4992
:1029C00046A80EF018F8336840215A1C32602046A1
:1029D0003A4A05F007FA21462A4646A80EF001FCBD
:1029E000014608B13648E3E736480BF0FEFB364DAA
:1029F000DFF8C880354F2B781BB90A200BF06FFB2E
:102A0000F9E7002346A82B700DF009F80146C8B974
:102A10002F480BF0EAFB4FF47A700BF060FB336841
:102A200040215A1C32602046424605F0DBF921461F
:102A3000002246A80EF0D5FB014638B925480BF018
:102A4000D4FBD8E724480BF0D0FBE4E7021D01D10A
:102A50002248F4E7431D01D12148F0E738460BF046
:102A6000C4FBC8E7541501085D220108E4140108FD
:102A700070220108852201089D220108D222010846
:102A8000AC170108DE21010840420F0006230108AF
:102A9000B018010880841E00E40A002047230108C2
:102AA0005D2301080000FA420000D94377230108A2
:102AB00096230108E00A002079250008AE230108CA
:102AC000BF230108E7230108CC0C00209D24010846
:102AD000062401084124010818240108562401088D
:102AE0007A240108014B1B68184700BF9806002094
:102AF000014B1860704700BF9806002007B50B46D1
:102B0000002102460091034800F06AF803B05DF826
:102B100004FB00BFE52A0008F0B5024601680A2759
:102B20000020074E0B461C780131355D6D0701D43E
:102B30001360F0BD07FB0043A3F13000F2E700BFD4
:102B4000051F01082DE9F84F15469A46D378234A08
:102B50006F2B12F803B081460F460BF0030B2BD0FE
:102B600026D8582B0CBF10260A26DDF828803246BE
:102B7000002348463946FEF74FFB092A08F1FF3883
:102B8000D4B21ED83034B145E4B277F1000788F8EA
:102B9000004001D3D04511D82B789B0605D5082ECF
:102BA00015D1AB7843F00803AB704046BDE8F88F11
:102BB00003F0F703702BD5E70826D6E781460F46CA
:102BC000D5E7BBF1010F0CBF37345734DBE7102ECC
:102BD000EBD1AB7843F01003E6E700BF051F010817
:102BE0002DE9F04F8A4616461C46002597B0039003
:102BF000307808B9284655E325280AD05146039B6A
:102C000098470028C0F24E83731C01350493049E3C
:102C1000EEE71822002110A805F01AF87378252B8A
:102C200000F0A380002398469E469C461846711CDF
:102C30000F4611F8012B2B2A00F0C68000F2BD8050
:102C4000202A00F0C480232A00F0C4802BB19DF814
:102C5000483043F040038DF84830B8F1000F05D0FC
:102C60009DF8483043F020038DF84830BEF1000F46
:102C700005D09DF8483043F010038DF84830BCF182
:102C8000000F05D09DF8483043F008038DF8483018
:102C900028B19DF8483043F004038DF848309DF882
:102CA000483003F04401442903D16FF386138DF8B3
:102CB00048309DF848302A2A43F0800309978DF860
:102CC000483040F08C809DF8493043F001038DF886
:102CD00049307B1C1A782E2A0CBF012100219DF857
:102CE000492061F341028DF849200CD15A1C099208
:102CF0005A782A2A40F083809DF84920023342F016
:102D000004028DF849201A786C2A00F0A48000F2A1
:102D10008680682A00F08C806A2A00F0A5804C2A00
:102D200000F0AA801A4612F8013B782B04928DF825
:102D30004B309DF8492000F217816D2B00F2A980DD
:102D4000692B00F21181572B00F2BE80412B03D07A
:102D5000453B022B00F2088104229DF84A3062F3C1
:102D600002038DF84A300123CAE08DF84B30B31CC2
:102D700004939DF84930D90740F1FD8054F8048B45
:102D8000B8F1000F07DA9DF84820C8F1000842F0BA
:102D900004028DF848205A0740F1F68054F804BB2D
:102DA000BBF1000F80F2F5809DF849306FF34103CD
:102DB0008DF849304FF0FF3BEBE02D2A0DD0302A43
:102DC0007FF444AF012333E74FF0010C30E74FF0BD
:102DD000010E2DE74FF001082AE7012028E709A896
:102DE000FFF79AFE099BBB423FF474AF9DF8482061
:102DF0001390C00F60F341028DF848206AE709A8DC
:102E0000FFF78AFE9DF848301490C3F3400242EA6F
:102E1000D07262F341038DF84830099B73E7742A3E
:102E200026D07A2A7FF47EAF06219DF849200CE057
:102E30005A78682A9DF8492006D1012161F3C6021B
:102E40008DF8492002336DE7022161F3C6028DF847
:102E50004920013366E75A786C2A9DF8492001D150
:102E60000421EBE70321F0E705219DF84920ECE779
:102E700007219DF84920E8E7BDF8482022F4F042F8
:102E800022F0020242F4804242F00202ADF84820F1
:102E9000DFE76E3BD9B201238B4040F282410B4207
:102EA00038D113F0240F52D1DF075DD503219DF8EF
:102EB0004A3061F302038DF84A3002F07803A3F13F
:102EC0004000434243411BE00120A3F15801C9B235
:102ED00000FA01F111F4624F7FF43EAF40F60107B2
:102EE00039421DD111F4043F3ED09DF84A3060F3C1
:102EF000020302F07802402A8DF84A3034D00023D1
:102F00009DF84820C2F340010B4363F341028DF862
:102F100048202EE702219DF84A3061F30203E8E7DA
:102F200002209DF84A1002F0780260F30201402A64
:102F30008DF84A1002BF9DF8481041F001018DF84C
:102F40004810632BDBD1131E18BF0123D8E70321E0
:102F50009DF84A3012F0780F61F302038DF84A3081
:102F600014BF01230023CBE79DF8483043F0010351
:102F70008DF84830C3E79DF94820002AACBF4FF0D8
:102F8000FF38DDF84C8006E79F077FF513AFDDF8CB
:102F900050B00023CDE913339DF84A309DF8491015
:102FA00003F00703012BC1F3C30132D1CB1E042B65
:102FB00004D8DFE803F020454520200023680129DC
:102FC0004FEAE372CDE910321BD19DF94030DA1798
:102FD000CDE9103204349DF8483013F003074FD088
:102FE00032465146049B03980BF016F90028C0F2B4
:102FF000598105440BE654F8043BDA17CDE9103249
:10300000E9E70229E6D11AB243F3C033CDE9102330
:10301000E0E7022B24D1CB1E042B04D8DFE803F019
:1030200018101018180001294FF0000254F8043B42
:1030300014D00229CDE91032CDD19BB21093CAE74A
:10304000073424F00704F4E80223CDE91023C2E793
:1030500054F8043B109300231193BCE7DBB2CDE797
:10306000042B08D1073424F00704D4E900230834E2
:10307000CDE91023AFE7032BADD154F8043BDDE7D6
:103080009DF84B0078283FF6C2AD62281ED825284F
:1030900050D058287FF4BBADDDE910010DF13E039F
:1030A000009312AA0AABFFF74DFDBBF1000F81465A
:1030B00080F2C180B9F1000F3FF4A9AD0DF13E06D9
:1030C000A6EB0903002F7BD0013379E06338152884
:1030D0003FF69DAD01A252F820F000BFAF310008CD
:1030E0000D3200080F2C00080F2C00080F2C0008D0
:1030F0000F2C00080D3200080F2C00080F2C0008C0
:103100000F2C00080F2C000859320008313200083B
:103110006D3100080F2C00080F2C00084531000805
:103120000F2C0008313200080F2C00080F2C00086B
:10313000313200085146039B98470028C0F2B28004
:10314000013564E5BBF1000FDDF840900ADB59461C
:10315000484604F0F9FEB9F1000F3FF458AD09EB11
:10316000000620E0484604F07FFEF8E710980028AB
:1031700000F086800DF13E060AAB0021009612AAEF
:10318000FFF7E0FCBDF84A30BBF1000F03F0EF039E
:1031900043F4F04343F010038146ADF84A3049DA76
:1031A00000283FF434AD0027A6EB090308E0109B8C
:1031B00000278DF8283001230DF129060DF128098B
:1031C0009DF84A1011F0100206925FD00233139A54
:1031D000134405924A0644BF14995B18B8F1000FD6
:1031E0006DDDA8EB03089DF848305807C3F3800B4A
:1031F00065D4590659D53FB151463846039B984787
:1032000000284FDB5F46013530234FE01E075ABFD1
:10321000C3F300135F012B27DDE91023002BBFF65A
:103220003BAF524263EB43032D27CDE9102333E735
:10323000002731E700279DF848100DF13E03A3EB6E
:1032400009036FF386119B458DF848107FF632AF66
:10325000ABEB030313932DE7109B07293FF6D7AC85
:10326000DFE801F00C04060C08080C0C1D70CEE41D
:103270001D80CCE4EA17C3E90052C8E41D60C6E42F
:10328000304E07460523A6F1050999E7080748BF10
:1032900001339CE7184607935146039B9847002843
:1032A000079B04DA17B0BDE8F08F2023C3465946C8
:1032B00000290BF1FF3BEDDC4544D8466D1A37B1D0
:1032C00051463846039B98470028EBDB01359DF8B3
:1032D0004A30DA0601D41B0706D551463020039B3D
:1032E00098470028DEDB0135069B3BB151469DF82F
:1032F0004B00039B98470028D4DB0135059F2F44E2
:1033000006E051463020039B98470028CADB013570
:103310007B1B002BF5DC33464A46514603980AF0E6
:103320007BFF0028BEDB0544A844A8EB0503002B67
:103330007FF76DAC51462020039B98470028B1DBF6
:103340000135F2E7C5240108074B00205A6822F036
:1033500001025A605A6822F002025A605A6822F04A
:1033600004025A60704700BF002004E0044A13685A
:1033700043F010031360034B034A1A60704700BF09
:10338000002002406C07002000127A0008B50348B4
:10339000034A0021121A0AF057FF08BD60090020F5
:1033A000D40C0020074808B5074A0849121A0AF049
:1033B0004DFFBDE808400648064A0749121A0AF0C0
:1033C00045BF00BF000000205C0900207C2A0108E6
:1033D00000000020000000207C2A010838B50546C6
:1033E0000C4699B1D1E901230F4809680AF0FDFEA6
:1033F000D4E90423E1680D480AF0F7FEE1690C48BE
:103400000AF0F3FEA1690B480AF0EFFE012D05D189
:10341000EFF30581084810390AF0E7FE21462846F7
:10342000BDE8384001F076BBC6240108F624010847
:1034300026250108362501086525010830BFFFF75C
:10344000FDBF00BF054B5A699B689A421FBF044AE3
:10345000536843F080535360704700BF380C00201E
:1034600000ED00E010B51D4C1D480AF0BEFEA36A39
:10347000990130D51B480AF0B8FE1E20A36ADA0174
:1034800003D519480AF0B1FE1F20144CA36A1B0390
:1034900003D516480AF0A9FE2120A36A590303D5D3
:1034A00013480AF0A2FE22200C4CA36A9A0303D50B
:1034B00010480AF09AFE2320A36ADB0303D50E48C6
:1034C0000AF093FE2420054A936A6FEA03436FEAE9
:1034D0001343936210BD1D20D0E700BF00ED00E054
:1034E0007925010892250108A6250108C1250108B2
:1034F000E0250108062601082126010870B5204CA8
:10350000064620480D460AF070FEA36AD90435D558
:103510001D480AF06AFE1720A36A1A0503D51B4846
:103520000AF063FE1820164CA36A9B050FD51848B5
:103530000AF05BFEA16BA36A180407D515480AF0D0
:1035400054FE1EB1A36A23F40043A36219200C4C5D
:10355000A36A5A0503D510480AF047FE1A20A36A49
:10356000DB0503D50D480AF040FE1B20044A936A90
:1035700043F47F43936200232B7070BD1620CBE78A
:1035800000ED00E04D2601086426010876260108BA
:103590008A260108A4260108BA260108D6260108B1
:1035A00070B51F4C06461F480D460AF01EFEA36A62
:1035B000D90632D51C480AF018FE1120A36A1A0752
:1035C00003D51A480AF011FE1220154CA36A9B0776
:1035D0000FD517480AF009FE616BA36A180607D5D4
:1035E00014480AF002FE1EB1A36A23F08003A3620E
:1035F00013200B4CA36ADA0703D50F480AF0F5FD38
:103600001420A36A064ADB0658BFA36A936A43F0F4
:10361000FF03936200232B7070BD1020CEE700BF24
:1036200000ED00E0EF2601080627010876260108D4
:103630003A270108532701086A2701082DE9F041BC
:103640005B4B04465F6800258AB0C7F3080685F324
:103650001188BFF36F8F02F07F43B3F17F4F06D124
:1036600002F00C03082B13D152480AF0BEFD0025CE
:103670002C464FF00008F31E8DF80780092B00F24E
:103680008580DFE803F00A797D75838383838381F6
:1036900010074CBF0C460125EBE74748444E0AF0A3
:1036A000A4FD8DF80780F36A9A0704D543480AF011
:1036B0009CFD00232FE0F36A002B01DA4048F6E777
:1036C000F36A5B00F5D53F480AF08FFD7369A26984
:1036D00043F480737361BFF34F8FBFF36F8F7369D0
:1036E00032F8022C23F480737361BFF34F8FBFF362
:1036F0006F8F4DF602739A4208D0B36ADBB24BB3B8
:1037000001200DF10701FFF74BFF33E021682E4840
:103710000AF06BFD23689DF80720C2B902AE04F1E0
:103720002007324620686168083403C2BC4216464E
:10373000F7D1099AB5B3C2F3080121B96FEA522251
:103740006FEA42220992184602A9FFF747FE0AB023
:10375000BDE8F081B36A13F47F4F05D001200DF16D
:103760000701FFF7CBFE05E0B36AB3F5803FA0D3B6
:10377000FFF778FE0346CEE700200DF10701C2E710
:1037800000200DF10701ECE7104890E7104B17F40B
:10379000F87F1049104818BF1946A6F110020AF028
:1037A00024FD86E722F4FF7222F00102CAE700BF7F
:1037B00000ED00E0B8270108E4270108FC27010814
:1037C0001E2801082D2801084D2801086A28010833
:1037D0009F2701088A2701088F280108044B5A698E
:1037E00042F010025A615A6922F008025A61704789
:1037F00000ED00E0EFF30880EFF3098101B57246B8
:10380000FFF71CFF01BD00BF0A4880F308881020A5
:1038100080F3118808484FF40061401880F309884C
:10382000EFF314800221084380F31488BFF36F8FF5
:103830000AF022FDD81D0020D80C0020084B9B6800
:1038400083420BD1EFF3058343B1064B5A6842F034
:1038500080525A605A6A22F400425A6201F064BEF1
:10386000380C002000ED00E00F498A684FF030006E
:103870001044EFF3098C80E8F01F102080F31288C9
:10388000BFF36F8F094F4FF000664A698A603E6050
:10389000906E0023936680F3118802F1300090E867
:1038A000F01F8CF309887047380C002004ED00E00D
:1038B0001EF0040F0CBFEFF30880EFF3098081695D
:1038C00011F8021C0229FFD001B572460AF0C0FCB3
:1038D00001BD00BF40B2002807DB01234109034AB4
:1038E00000F01F00834042F82130704700E100E003
:1038F00040B2002801F10101ACBF00F16040064B6D
:103900004FEA0111C9B2ABBF00F5614000F00F00F2
:1039100080F800131954704714ED00E0054B064A77
:1039200023F0404323F07F039360BFF34F8FBFF337
:103930006F8F70470000000800ED00E042F8203C67
:10394000009B0B4942F81C3C019B21F0010142F80D
:10395000183C029B42F8081C42F8143C4FF080735C
:1039600042F8043C0023203A02658366704700BF9A
:1039700005E200080A4B00B50E46154698602C4635
:1039800086F309880020044B984720460021002236
:103990000023024C2047000095E2000805E20008E1
:1039A000380C00201022014B1A61704700ED00E036
:1039B000002310210348C21801332B2B82F8001377
:1039C000F9D1704700E100E008B5EFF30583064A3E
:1039D000103B02EBC30152F8330049688847BDE849
:1039E0000840FFF72FBD00BF70150108014B18609C
:1039F000704700BFA0060020F8B506460D4600241B
:103A0000064FAC4208DA3B6898470A28305504F163
:103A1000010401D00D28F4D12046F8BD9C060020F9
:103A2000F8B50D46094F461EC0F10104A3199D4289
:103A300001DC2846F8BD73780A2B02D10D203B68C3
:103A400098473B6816F8010F9847EFE7A00600205B
:103A500010B5074C2368C2180648C0F1005101F5A3
:103A6000A0418A4236BF22604FF0FF30C01810BD1F
:103A7000480B0020D825002008B505480AF0B5FB02
:103A8000002383F31188BFF36F8F0423184602DFEE
:103A9000A32801081F2809D8012303FA00F0044BCA
:103AA0005B6998430CBF01200020704700207047DD
:103AB00000040140012300F01F021F2803FA02F353
:103AC0009DBF034A002053616FF01500704700BF8F
:103AD00000040140044B184400230133994200F8CC
:103AE000012BFADC704700BFF40800202DE9F041FB
:103AF000054600264FF001080E4F6B78F4B2A34242
:103B000001D8BDE8F0812B781C442046FFF7C2FFA6
:103B100068B12046FFF7CEFF57F834303BB107EBD2
:103B2000C40204F01F04516808FA04F098470136F3
:103B3000E3E700BF4C0B0020034660B1B0FA80F20F
:103B4000C2F11F02D2B205498856054A11680B43DB
:103B50001360FFF7BFBEFF22F5E700BFF4080020A7
:103B600000040140024A136823EA0003136070470F
:103B700000040140032921D8DFE801F0020C1019EC
:103B80000F4B9A6822EA00029A60DA6822EA000281
:103B9000DA6070470A4B9A680243F5E7084BDA6827
:103BA0000243DA609A6822EA00029A607047044B86
:103BB0009A6802439A60DA681043D860704700BF81
:103BC0000004014030B5B0B1B0FA80F3C3F11F0377
:103BD000DBB20B4850F833408C4204D100EBC305F4
:103BE0006D68954205D044B940F8331000EBC3002E
:103BF0004260002030BDFF23EBE76FF00F00F9E7D4
:103C00004C0B002060B1B0FA80F3C3F11F03DBB2AC
:103C10000021044A42F8331002EBC302516070479E
:103C2000FF23F5E74C0B00200F2300F003020432C2
:103C30009200934043EA9000C3B2064A023352F81E
:103C40002320030C93FAA3F3B3FA83F302EA1040A0
:103C5000D84070470000014038B51E4B0D4618682B
:103C60000B881446C3F30B03013B1B2B2BD8DFE857
:103C700003F010210E211F2A1910102A2A2A2A2A9D
:103C80002A2A2A2A2A102A2A2A102A2A2A1749F6F0
:103C9000404020602B68B3F5805F0DD2002038BD16
:103CA0004008F6E70AF037FC80B10AF034FCF0E790
:103CB0000948EEE70020ECE7C3F313330133B0FB10
:103CC000F3F02060EAE76FF08500E8E76FF00400AA
:103CD000E5E700BF6C07002000127A00F8B53B4F03
:103CE0000AF01BFC38460AF015FC00F0C7FE384C01
:103CF000384A63681578C3F30313D35C47FA05F5B4
:103D000020FA03F6AE4202D2284600F0DDFE236818
:103D100043F480232360236843F4803323602368C3
:103D20009A03FCD5636A43F001036362636A9B07ED
:103D3000FCD5636803F00C03082B15D123689807A2
:103D400006D4236843F00103236023689907FCD558
:103D5000636823F003036360636813F00C0FFBD107
:103D6000636823F0F0036360236823F080732360AB
:103D700023689A01FCD400F031F8236843F0807383
:103D8000236023689B01FCD5636823F0F003636024
:103D9000636823F0030343F002036360636803F086
:103DA0000C03082BFAD1AE4202D3284600F08CFE59
:103DB000094B00201F60636823F4E06343F48063D1
:103DC0006360636823F460536360F8BD00A24A0433
:103DD00000100240762901086C070020054A53684C
:103DE00023F47C1343F4E8135360536823F48003F3
:103DF000536070470010024008B507480AF095FF6D
:103E000038B10648FFF7F2FD0448FEF771FE0020C6
:103E100008BD6FF01200FBE700150108213E000805
:103E20000A2838B50446074D04D1AB680D21284651
:103E30005B689847AB6803485B68E1B298472046E7
:103E400038BD00BF001501082DE9F843D0F8048003
:103E50001746D0F81090D8F808000D461E460AF014
:103E6000AAFAB7F5001F044616D12846D8F808402C
:103E7000FFF7DAFE84420CD129460AF09CFA044688
:103E8000FFF770FE2046FFF7BDFE00212046FFF73A
:103E900071FE0020BDE8F883B7F5800F20D0B6F1A1
:103EA000806F19D0B6F1C06F18D0B6F1007F1AD16B
:103EB00002264A4620460F49FFF784FEB0B928463D
:103EC000D8F808100AF07CFA20463146FFF752FE77
:103ED0002046FFF731FEDCE70126EAE70326E8E7A4
:103EE0006FF08500D6E76FF01500D3E76FF00F0095
:103EF000D0E700BF33E6000838B5036904465860D0
:103F00000A4D28460AF011FF60B1AB6861681B6872
:103F10000C3123B12846984700EAE07038BD6FF0B5
:103F20005700F9E76FF01200F8E700BF201401080E
:103F300000222DE9F347134604468A4211D22BB9D9
:103F400054F83230C3F389230132F6E754F83200D3
:103F5000C0F389200028F7D098425ED10132914207
:103F6000F4D8E3B12E4A13F0010F906940F001003C
:103F7000906192694FEA132002F001020192019AC6
:103F8000C3F3440200FA02F0264A09BF5368D3691A
:103F9000034343F0E06316BF03435360D361224FF2
:103FA00004EBC106A64201D1002011E0D4E90025AE
:103FB00012F003090FD145F04105C2F3870AC2F39D
:103FC000831257F82280B8F1000F15D16FF012005C
:103FD00002B0BDE8F087B9F1020FEED0B9F1010FE0
:103FE00007D115F4C07F0CBF45F0020545F004056C
:103FF000E3E745F00105E0E740460AF096FE0028B9
:10400000E4D04B462A4640460AF00F010AF0F5FB81
:10401000002804F10804C5DADAE76FF01500D7E7E5
:10402000001002400000014074190108F8B50C4668
:10403000036941681D682379012B35D09A1E5642C9
:104040005641B6026279022A96BF384F4FF4005C9F
:1040500037F812C0A279042A29D0003B18BF0123E7
:104060001B03E279012A0A680CBF4FF4407700274E
:10407000A542D1681ED121F4B05131430B43D36026
:10408000136923F4405343EA0C03136143681A682D
:10409000536923F440733B435361296840680AF035
:1040A00044FC00EAE070F8BD4FF4C066CAE74FF484
:1040B0008053D6E701F4C0618E421FBFD16821F45E
:1040C000C0613143D160426811680A6902F440520C
:1040D00094451FBF0A6922F4405242EA0C020A6169
:1040E00042681168CA6802F4805293421FBFCA68CE
:1040F00022F480521343CB6043681A68536903F477
:1041000040739F421FBF536923F440733B43536185
:1041100021682B68994206D040680AF006FC002806
:10412000C1DB23682B600020BDE700BFE62101084A
:10413000F8B50C464368A6791D6803691F680B79BA
:104140004979012B35D102294AD9042E45D04FF4A3
:10415000C0624FF480534FF0030C8C453DD1002BCF
:1041600077D0002A14BF03220422B24235D1E3796A
:1041700063B1012B31D1394B9D4207D0A3F5744374
:104180009D4203D003F580639D4226D1EB68214612
:1041900023F40053EB60FFF749FF00281DDBEB68B9
:1041A00043F40053EB6094E8030087E80300002029
:1041B00015E0022B06D102291FD9042E0DD04FF491
:1041C0008062C6E702290A461FD9042E02D123B90C
:1041D0000022BEE713BB0329C7D06FF08500F8BDEE
:1041E0001F4A042E32F811C0F7D04FF4C062033BCF
:1041F000012BF2D94FF4805319E0194A042E32F8FA
:1042000011C0EAD04FF48062F1E7154A042E32F86B
:1042100011C009D1002BE0D11A46EBE7033B012B7B
:10422000DBD9D5E70022E2E7002BFBD11A46BCF52B
:10423000805F08D0BCF5405F08D0BCF1000F8AD188
:104240004FF0010C89E74FF0000C86E74FF0020CAD
:1042500083E7002A14BF0222032286E700380140C8
:10426000E62101082DE9F0410446056932480AF0CB
:104270005CFD00285CD028460AF00AFD0121606838
:104280000AF0DDFC002802DA10F1860F48D125691A
:104290006468002120460AF0D2FC00283EDB264854
:1042A000E16883681B68002B3FD09847B0BB0126AC
:1042B000AC680834D5E9023203EBC203A4F108026A
:1042C000934201D8002029E054F8080C0AF02DFD93
:1042D00040B354F8080C14F8041C34F8023CD0F82D
:1042E00010C0DA07DCF8007054BF43F4B01383F455
:1042F000D01323F4801206FA01FEDB07D0F8088001
:104300004CBF4EEA070727EA0E07CCF80070D8F832
:1043100000309847002804F10804CBDA00EAE07086
:10432000BDE8F0816FF01200F8E76FF05700F5E795
:104330006FF01200F4E700BF201401082DE9F04FE0
:10434000074689461E469246046989B012B9002B79
:1043500000F02F81B9F8043098042ED44FF0FF32CA
:104360004FF0FF3304F1100000F004FEC4F8049095
:10437000D7F810B0D7F80480DBF80030D8F8005038
:104380009945B9F8042040F0C380110540F16B81D4
:104390002B6823F44443BAF1000F15D043F4404393
:1043A0002B60B9F804000AF0CFFB8146DAF8003040
:1043B00063639BB1DAF8043010E0A369002BCDD120
:1043C00063689945CAD1D3E743F400432B60B9F839
:1043D00004000AF0B9FB814600236363A36304F180
:1043E0003403019304F13803029304F14803039367
:1043F00004F148024B4604F1380104F134000AF09C
:104400008DFB6064002E40F04A81E6630023236444
:1044100004F1400A04F13C0304F1500B5A460493A2
:1044200051464B4604F13C000AF078FB0023E0645F
:1044300023632B6803F444497B681A68136843F0CC
:10444000400313603E69306848B1037D3BB10121F0
:1044500008300AF009FC336818690AF040FCA26CC5
:104460001AB9266D002E00F041812368D8F800604B
:104470009888C10740F11A810AF066FBB1680346CB
:10448000890740F1A581002A00F0A281012840F0AF
:104490009281626C12783273A26C92B1013AA2647A
:1044A000002A40F08E81626B019808326263A26B31
:1044B0000593013AA263DDE902120AF02FFB059B86
:1044C0006064B268D20740F1FF80E26C002A00F01D
:1044D000FB80216D002900F0F780012B40F08481E2
:1044E000317B1170226D002A00F0EE80013A2265C6
:1044F000002A40F07F81E26B51460832E263226C71
:104500000498013A22645A460AF008FBE064DBE0B2
:10451000D8F81010C2F3451302290CD003290DD08E
:10452000012905D1043B1C2B8CBF002301234BB96F
:104530006FF0850632E0043B0C2BF5E7082B01D029
:10454000102BF5D11204F3D4A448D8F80C108368CA
:10455000DB680BB307AA984700281DDB00230798E8
:104560001A46D9F80010013320FA03FC8C4524D8F0
:104570002B689B4923F040032B602B6851F82220C5
:1045800023F0380313432B60B9F804309B0719D488
:104590002B6823F0020318E06FF00406236813B1C0
:1045A0009B889B0405D40023636004F1100000F095
:1045B000ADFC304609B0BDE8F08F082BD0D16FF0CC
:1045C0001506EBE72B6843F002032B60B9F80430C3
:1045D00013F0040F2B6814BF43F0010323F0010311
:1045E0002B60B9F8043013F4006F2B6823F44443B4
:1045F00004D0BAF1000F40D043F440432B60B9F827
:10460000043013F0100F2B6814BF43F0800323F025
:1046100080032B602B6823F400532B6099F814302F
:1046200073B32B6843F400732B606B6823F00403AF
:104630006B60B9F804306B4A13F0010F2B6814BF9C
:1046400023F4827343F482732B60B9F804000AF0F8
:104650007BFA2B68013852F8202023F400631343BF
:104660002B60CBF80090B9F804000AF06DFA81468F
:10467000BAF1000F7FF49AAEAEE643F40043BDE713
:10468000B9F8043013F0010F2B6823F40073CBD179
:1046900043F480232B606B6843F00403C8E733685E
:1046A000E363002B3FF4B2AE7368B0E698F81430C1
:1046B00013F0010F336803F4444363D0B3F5404F64
:1046C0004ED1B368980758D4D8F800309A6812F0E1
:1046D000700F00F096809A68550605D5DA68069244
:1046E000069A9B680693069B6FF004067B68D7F8D2
:1046F00010801D682B6803F48273B3F5827F17D195
:10470000AB681B0602D52B685F06F9D4D8F80030D9
:1047100073B11A7D62B1998811F4805708D1186974
:104720000AF0DDFAD8F80000394608300AF09CFAA1
:10473000AB68980606D5AB680793079B2B6823F0F8
:1047400040032B60D8F800309B88D9043FF526AF92
:104750002B6823F040032B602B685A06FCD41DE71E
:10476000B268D10705D52146304605930AF031FAE3
:10477000059BB3F5004FA4D1A6E7214630460AF0C9
:10478000EEF9A1E7B3F5004F08D1D8F8000083682F
:10479000DE07FCD521460AF01CFA95E7B2689207BD
:1047A000FCD52146304605930AF0D9F9059BB3F5AF
:1047B000404F89D0E9E7022802BF626C1288B281BB
:1047C0006AE6626C002A3FF47CAE1A44626478E6C2
:1047D000726822F08002726073E600BF2014010844
:1047E000801A0108481B0108022B7FF47BAEF16898
:1047F000118077E6E26C002A3FF466AF1A44E26467
:1048000062E7B9F5404F7FF42AAEA26C92B9226DEF
:1048100082B19A681006FCD41A6822F040021A602D
:104820001A6822F4444242F400421A601A6842F0C4
:1048300040021A602B6803F4444910E64FF0E0236D
:1048400010B50F499C691A6908689B690D4902F403
:10485000803234B993B903464AB90A681044C01A81
:1048600010BD002B08BF03460AB9A342F5D90A6858
:1048700002440A604FF0E0221269EEE70446F3E7D3
:10488000340C0020300C00201022094B002083F84B
:1048900023204FF4E152074B1A60074B41F61F42A9
:1048A00018604FF0E0235A61072298611A6170473F
:1048B00000ED00E0340C0020300C0020684620F0B1
:1048C00007018D4619B5FFF7B9FF1149114B08686B
:1048D000D3E90042001942F10002C3E900020023BB
:1048E0000B604FF4E1530C4AD2E90041001BB0FBCE
:1048F000F3F043431B1941F10001C2E9003100F01C
:10490000F1FFFEF79FFDBDE819408546704700BFE7
:10491000300C002068090020600900202DE9F041DA
:10492000DFF8E08099B1421C0BD14FF0E02213690F
:1049300023F0010313614FF07F43C8F80030BDE856
:10494000F081D8F80060012807DC00270BE0431C49
:10495000D8F80060F7D140F6191040F61A139842C3
:10496000A8BF1846471EEFF31185102383F3128862
:10497000BFF36F8FFFF762FF4FF0E023224C99697E
:10498000D4E9002380184FF0000243F10003C4E98A
:1049900000031E4B1A601E4B1A68831A2ED44FF464
:1049A000E15C0CFB073303F5E0531F33B3FBFCF76B
:1049B000131A0CFB0733B3F5806F38BF4FF48063D5
:1049C000144A934228BF13464FF0E022C8F8003043
:1049D000013B90695361002381429361A1EB000385
:1049E00038BF9B19D4E900125B1842F10002C4E9F8
:1049F000003285F31188BFF36F8FA0E74FF4806317
:104A0000E2E700BF340C002068090020300C0020D1
:104A10006009002020DFFF0038B5EFF31185102377
:104A200083F31288BFF36F8F084B1C68084B1B6819
:104A3000E41AFFF703FF85F31188BFF36F8F4FF47C
:104A4000E1532044B0FBF3F038BD00BF68090020FB
:104A50006009002038B5EFF31185102383F3128825
:104A6000BFF36F8F044B1C68FFF7E8FE85F31188D6
:104A7000BFF36F8F204438BD680900200D4A53688A
:104A800003F00C01082912D10B48C3F38341DB0367
:104A9000405C09D55368094AC3F340435043084A70
:104AA000D35CB0FBF3F07047064B584370470348A4
:104AB000704700BF001002408829010800127A00E8
:104AC0008629010800093D00D8B10F4B984216D83D
:104AD0000E4B984294BF002001200D4A136823F02A
:104AE000070303431360136803F0070398421CBFD6
:104AF000136803F00703C01A18BF01207047022093
:104B0000EBE70120704700BF006CDC0200366E014D
:104B10000020024038B5EFF31185102383F312888B
:104B2000BFF36F8F064B9C680AF012F985F311886A
:104B3000BFF36F8F2046BDE83840FEF77FBE00BF51
:104B4000380C002038B50A4B53F82040013053F898
:104B50002050A54200D838BD606830B1037EDB0725
:104B600001D40AF0CAF80834F3E723689847FAE753
:104B7000501B0108012270B52E4B032086B01A701D
:104B8000FFF7E0FF00F02AFF2B4C2C4DAC421AD16E
:104B90000420FFF7D7FF2A4C2A4D2646AE4204F1E7
:104BA000300416D300F0C6FB254C274EAC422CD364
:104BB00000F0D4FBFDF7DCFD244A938923F00103C8
:104BC000938106B070BD54F8043B002BE0D09847A9
:104BD000DCE754F80C3C059354F8103C049354F86B
:104BE000143C039354F8183C029354F81C3C019372
:104BF00054F8203C009354E90A2354E90C0100F0D6
:104C0000DFF954F8303C5E65C7E7D4E90A23B3F115
:104C1000FF3F08BFB2F1FF3F05D052EA0301206811
:104C200003D100F057FC3034C0E73146183000F0B3
:104C3000C9FDF8E7CD0C0020341701083C17010826
:104C4000C8160108C816010857EE0008E009002040
:104C5000702370B5134E012203FB0066002386B05B
:104C6000CDE904230F220193CDE9023214230E4D26
:104C70000E4903FB0055044601EB00214FF48072FE
:104C800030460B4B009500F09BF9337C2C7423F0DD
:104C900004033374074B013403EBC423EE606B60F1
:104CA00006B070BD70090020380C0020D814002018
:104CB00057ED0008D80C0020BFB50020FFF742FFD9
:104CC000264B83F30888264C00256369254F43F45F
:104CD00000736361F02384F82230E57725766576EA
:104CE000A57684F82050636A43F4E0236362FEF7FC
:104CF00075FDFEF757FE4FF0FF331B48A362E362DA
:104D000000F088F9FEF732FB0120FFF71BFF0220BD
:104D1000164CFFF717FF00F055FB154B15495C616A
:104D2000154B4FF40062059301232046CDE9035350
:104D3000CDE901553B46009500F042F90646227C3C
:104D4000204622F0040222740AF059F82846FFF7A0
:104D50007FFF3A4631462046FEF70CFED81400206D
:104D600000ED00E0754B0008500A0020E00900202B
:104D7000380C0020D8150020982901082DE9F341AE
:104D8000044617461E46EFF31188102383F312885A
:104D9000BFF36F8FC368334A7BB1806891688842E4
:104DA00019D057EA060318D188F31188BFF36F8F23
:104DB0006FF00F0002B0BDE8F081916891F90E101C
:104DC0000133E36093682161A36088F31188BFF326
:104DD0006F8F0020EEE72169F2E791F90E1090F94C
:104DE0000E306FF07E029942A8BF19469142B8BFBB
:104DF00011468B422DDD09F0B9FF0546224641469A
:104E0000CDE90076184800F0DBF90028E1D0EFF397
:104E10001186102383F31288BFF36F8FA068D0B17F
:104E2000236821699C420AD04BB193F90E30994214
:104E3000A8BF19466FF07E039942B8BF194609F022
:104E400095FF40B13146084800F04EFA6FF00A0075
:104E5000B0E70025D2E7002DF4D186F31188BFF327
:104E60006F8FF3E7380C0020CE0C0020F8B5836874
:104E70000546002B3FD0234A926893423ED1C36837
:104E8000012B03D9013BC3600020F8BDEFF311876C
:104E9000102383F31288BFF36F8F0169806809F0D4
:104EA00065FF2C68A54207D10023C5E9023387F3CB
:104EB0001188BFF36F8FE7E7002CF5D0D4E90032FB
:104EC000002613605A60237CC4E9006623F00203C5
:104ED0002374A66004F1180009F0F7FFAC6094F9A0
:104EE0000E3020462B61E66609F089FF39460648F8
:104EF00000F0FAF9C8E76FF01500C6E74FF0FF3091
:104F0000C3E700BF380C0020CE0C002070B5EFF3D3
:104F10001186102383F31288BFF36F8F0468A042B9
:104F20001AD0CCB1D4E90032002513605A60237C3A
:104F3000C4E9005523F002032374A56004F11800AE
:104F400009F0C3FF2046E56609F059FF3146BDE888
:104F50007040074800F0C8B9D0E902329A4218BF41
:104F60000133836086F31188BFF36F8F70BD00BF7C
:104F7000CF0C002013B5EFF31181102484F31288B5
:104F8000BFF36F8F846844B1013C846081F3118862
:104F9000BFF36F8F002002B010BD52EA030406D1A8
:104FA00081F31188BFF36F8F6FF00F00F3E7CDE946
:104FB00000230246014800F003F9ECE7CF0C002083
:104FC0007FB50C9E00F1580586810426C0E9165570
:104FD00000250446067407320B9E22F007028673F2
:104FE0008E180A9AC0E906558560C5730292099A1F
:104FF0000192089A00923246FEF7A0FC044B6565C8
:105000009B6803B15B6E3046636604B070BD00BF41
:10501000380C0020012310B504460374838100F08E
:10502000D7FC014B9C6010BD380C00206FF00A01CA
:10503000084A9368D966084998664B6843F08053DC
:105040004B60002383F31188BFF36F8F9368D86E92
:10505000704700BF380C002000ED00E070B590F9FB
:105060001020037C002A36DBD90634D11B4C63F0B8
:105070007F032246037452F8183FE169934207D137
:10508000C0E900210860E06111E09942F8D01B6896
:10509000002BF5D090F90E5093F90E60B542F4D084
:1050A000AE42F2DD5968C0E9003108605860A56978
:1050B000954200D005B9E568A3681A7CD20604D1F0
:1050C000DA897F2A01D9AA6932B1AB4202D02846D7
:1050D00000F0FAFA656170BD6361FCE7380C0020EE
:1050E00038B590F910200146002A037C04DA03F059
:1050F0007F03037409F049FE0D4D2A4652F8184FFC
:10510000AB68944200D004B9EC688B4207D01A7C9B
:10511000D20604D1DA897F2A01D9A2692AB1A34231
:1051200002D0204600F0D0FA23466B6138BD00BFA4
:10513000380C0020B3F1FF3F08BFB2F1FF3F03D0AE
:105140000249183000F03EBB704700BF57EE000820
:1051500038B5194CA168E0690B68814214BF1A4642
:10516000002249680B605960A368E1692AB9134AB3
:10517000C3E900210B60E3610CE093F90E0092F9A2
:105180000E50A84214D0854212DD5168C3E90021B7
:105190000B605360A569094B9D4200D005B9E568D5
:1051A000A3689D4202D0284600F08EFA656138BDA2
:1051B0009142DCD01268D9E7380C0020500C002056
:1051C000F8B5DDE906670D4B0C46986811460C4AA8
:1051D0001060EFF31182102282F31288BFF36F8FF9
:1051E0009D68284609F0E3FD284632463B46FFF716
:1051F000A1FF2046BDE8F840FFF718BF380C00209B
:10520000580C0020F8B50446EFF31187102383F300
:105210001288BFF36F8F037C49B203F01F02002A8C
:105220000CBF0126002639D103F07F032D4D0374F6
:1052300009F0ABFD2A46037C817363F07F0303749E
:1052400052F8183F934227D1E869C4E9002004606E
:10525000EC610FE09842F8D01B68002BF5D093F971
:105260000EC06145F6D08C45F4DD5968C4E90031C3
:105270000C605C60AC69944200D004B9EC68AB6827
:105280009C4202D0204600F01FFA6C6187F311881F
:10529000BFF36F8F3046F8BDE869DEE79B071ED588
:1052A000856809F072FD81732B689D4209D16B6896
:1052B000C4E900531C606C60E8E76A689342F6D06A
:1052C0001B68002BF3D093F90E209142F5D08A424F
:1052D000F3DD5A68C4E9003214605C60D6E781737C
:1052E000D4E700BF380C002049B9EFF3058030B98E
:1052F000054B5A699B689A4201D0FFF797BE81F32C
:105300001188BFF36F8F7047380C0020034648B9EF
:10531000EFF3058232B9064A51699268914201D091
:10532000FFF784BE83F31188BFF36F8F704700BF10
:10533000380C0020EFF31181102383F31288BFF3A0
:105340006F8F054B9A68D37B013BD37381F3118830
:10535000BFF36F8F704700BF380C002070B5EFF3BC
:105360001186102383F31288BFF36F8F144DAB683F
:10537000DA7B0132DA732A4652F8184F944200D091
:1053800004B9EC681A7CD20604D1DA897F2A01D9E3
:10539000A2692AB1A34202D0204600F095F9234623
:1053A0006B6186F31188BFF36F8FEFF311801023C9
:1053B00083F31288BFF36F8FBDE87040FFF7A6BF7D
:1053C000380C0020024B03F11802C3E90622704793
:1053D000380C002070B5EFF31186102383F3128888
:1053E000BFF36F8F1B4CA168E0690B68814214BF4B
:1053F0001A46002249680B605960A368E1692AB91E
:10540000154AC3E900210B60E3610CE093F90E003B
:1054100092F90E50A84218D0854216DD5168C3E9B2
:1054200000210B605360A5690B4B9D4200D005B96C
:10543000E568A3689D4202D0284600F045F9656101
:105440003046BDE87040FFF7F1BD8A42D8D01268FF
:10545000D5E700BF380C0020500C0020F8B550EA0A
:10546000010306460C4603D1FFF7B4FF0020F8BD48
:10547000EFF31187102383F31288BFF36F8F124D60
:10548000124BA8681860FFF72BFEA8682346324627
:105490000F49183000F096F9AA680446137C384684
:1054A00043F004031374FFF7C1FDAB68D3E90A238B
:1054B000B3F1004F08BF002AD8D109F02EFD201A01
:1054C00020EAE070D3E700BF380C0020580C002021
:1054D00057EE000838B50446EFF31185102383F327
:1054E0001288BFF36F8F037C5B070FD5183009F06C
:1054F000ECFC237C204623F004032374FFF7AEFD6D
:105500002946BDE838400448FFF7EEBE85F3118810
:10551000BFF36F8F38BD00BFD00C0020014B9868DF
:10552000704700BF380C00202DE9F84304468789F6
:10553000EFF31185102383F31288BFF36F8F037C81
:10554000190705D585F31188BFF36F8FBDE8F88380
:10555000D90943F008025DD10274A36813B1204653
:1055600009F01BFC04F1180009F0AFFCA66D04F172
:105570005808B04511D04FF0000976B1304609F017
:105580000CFC06F1180009F0A0FC3046C6F86C903F
:10559000FFF764FDA66DB045EFD1DFF8C080D8F805
:1055A00008309C423ED1EFF30589B9F1000918BFDC
:1055B0004FF00109D8F81860294A964200D00EB978
:1055C000D8F80C60B34202D0304600F07DF8204697
:1055D000C8F8146008F05BFEB9F1000F02D0214852
:1055E000FFF718FDD8F808309C4231D1EFF305835E
:1055F00073BBA289D20718D42846FFF717FDFB0713
:10560000A4D5002383F31188BFF36F8F04231846BA
:1056100002DF9BE703F07F0343F00803037409F004
:10562000B4FB9AE74FF00009C4E785F31188BFF394
:105630006F8F83F31188BFF36F8F0423184602DF47
:10564000EFF31180102383F31288BFF36F8FD4E739
:1056500085F31188BFF36F8FD1E700BF380C0020AE
:10566000500C0020500A0020027C034612F01F025A
:1056700010D10A4988420DD00949086868B1D98912
:105680007F2909D893F90E20064B1B689A42B8BFB0
:1056900000207047002070471046704770090020B6
:1056A000700700205C0C00200122044BC01A044B40
:1056B000C0105843034B1A54704700BFC00A002063
:1056C000ABAAAAAAD10C002070B50C4B0C4D1E7CC5
:1056D000FFF7CAFF182303FB06550446284609F0C6
:1056E000F4FB0022074B9A553CB1621E2846BDE8E8
:1056F00070400549D31700F065B870BD380C002024
:10570000C00A0020D10C0020A956000838B5EFF3DC
:105710001185102383F31288BFF36F8F0F4B104A4C
:105720009C681068A04206D1FFF7CEFF85F3118870
:10573000BFF36F8F38BD00211B7C1160094AD35C19
:10574000002BF3D02046FFF78FFF0028EED0237CFC
:10575000DB0601D1FFF7FCFC2046E5E7380C002012
:10576000580C0020D10C0020024B1868984208BF4A
:105770000020704774070020034B1B680BB9FFF72C
:105780004BB90020704700BF600C002030B570B1ED
:105790000B4B5B6898420AD0036843B1D3E90421FC
:1057A000D0E90445121941EB0501C3E90421D0E910
:1057B000003213605A600023C0E9003330BD00BFDF
:1057C00074070020B3F1FF3F08BFB2F1FF3F2DE99E
:1057D000F84F0446994615461F467AD08160EFF38C
:1057E0001188102383F31288BFF36F8FB9F1000F74
:1057F000DFF8E4A020DBFFF7BFFFDAE9002701357F
:1058000049F100092D1849EBE07306464FF00109F4
:10581000C4E90453AD1843EB0707FFF7A5FF0346A0
:10582000DFF8B8E0DEF804A0EBB9C4E900EACAF892
:105830000040CEF8044028E06FF00103DAE90012DE
:105840005B1A4FF0FF3161EB02025B1B62EB090256
:10585000012B72F10001BCBF012300224FF00009AF
:10586000C0E90432D9E7D3E9041CD4E904208A4210
:1058700070EB0C0B24DA891A5A686CEB0000C3E950
:105880000410C4E9003214605C60FFF76DFF8442CD
:105890000ED1134B1B685BB9B9F1000F02D1FFF7B2
:1058A0006BFF0646304609F0F9FA0021FFF736F89B
:1058B00088F31188BFF36F8F28463946BDE8F88F0B
:1058C000521A60EB0C009A45C4E90420ADD01B6865
:1058D000AAE700252F46EFE7D80A0020740700202A
:1058E000600C00202DE9F047EFF31185102383F3BE
:1058F0001288BFF36F8FDFF8A0900026C9F8000070
:105900000027FFF731FFDFF89480D9F80030D8E99D
:1059100000ECD91750B1D0E90442A34271EB020A5E
:105920001BDAE41A62EB0102C0E90442002413EB23
:105930000E034CEB01012046C8E90031C9F80040D4
:1059400009F0ACFA2146FEF7E9FF85F31188BFF3B1
:105950006F8FBDE8F047FFF7D9BE14EB0E024CEB9A
:10596000E473C0E90467C8E90023FFF70FFF85F37C
:105970001188BFF36F8F83689847EFF31185102369
:1059800083F31288BFF36F8FD9F800301B1BC9F85F
:105990000030FFF7E9FEB8E7600C0020D80A0020CD
:1059A00010B5EFF31184102383F31288BFF36F8FC8
:1059B000FFF7E2FE0346054AD2E90001181841EB61
:1059C000E37184F31188BFF36F8F10BDD80A0020F4
:1059D000014B4366704700BF1C090020014808F0D6
:1059E00004BC00BF9D29010838B5064C064DAC42E9
:1059F00001D3002038BD2046D4E9011209F093FA02
:105A00001834F4E71C0900203409002010B5C0E95F
:105A10000223029B064C0361039BC0E900414361E2
:105A2000049B8361034B1A6802B9186010BD00BF64
:105A3000701B0108640C00202DE9F041104D044654
:105A40002F4690469E46061D8C460FCF0FC697E800
:105A50000700069B86E80700A362079B04F1300657
:105A60001C35E362C4E9088E0FCD0FC62B682046B3
:105A7000336000236364C4F800C0BDE8F08100BF58
:105A80004017010810B5044600F014FB034B2046F4
:105A90002360034BC4F84C3110BD00BFD81B010874
:105AA000D829010801297FB507D0022928D0C1B122
:105AB0006FF0130007B05DF804FB00230593174B4C
:105AC0004FF0080C04930A234FF0120ECDE9023C6C
:105AD0000723134ACDE9003E1249092309F0EBFDE3
